{
  "contractName": "SolnSquareVerifier",
  "abi": [
    {
      "constant": true,
      "inputs": [
        {
          "name": "interfaceId",
          "type": "bytes4"
        }
      ],
      "name": "supportsInterface",
      "outputs": [
        {
          "name": "",
          "type": "bool"
        }
      ],
      "payable": false,
      "stateMutability": "view",
      "type": "function",
      "signature": "0x01ffc9a7"
    },
    {
      "constant": true,
      "inputs": [],
      "name": "name",
      "outputs": [
        {
          "name": "",
          "type": "string"
        }
      ],
      "payable": false,
      "stateMutability": "view",
      "type": "function",
      "signature": "0x06fdde03"
    },
    {
      "constant": true,
      "inputs": [
        {
          "name": "tokenId",
          "type": "uint256"
        }
      ],
      "name": "getApproved",
      "outputs": [
        {
          "name": "",
          "type": "address"
        }
      ],
      "payable": false,
      "stateMutability": "view",
      "type": "function",
      "signature": "0x081812fc"
    },
    {
      "constant": false,
      "inputs": [
        {
          "name": "to",
          "type": "address"
        },
        {
          "name": "tokenId",
          "type": "uint256"
        }
      ],
      "name": "approve",
      "outputs": [],
      "payable": false,
      "stateMutability": "nonpayable",
      "type": "function",
      "signature": "0x095ea7b3"
    },
    {
      "constant": false,
      "inputs": [
        {
          "name": "newValue",
          "type": "bool"
        }
      ],
      "name": "setPaused",
      "outputs": [],
      "payable": false,
      "stateMutability": "nonpayable",
      "type": "function",
      "signature": "0x16c38b3c"
    },
    {
      "constant": true,
      "inputs": [],
      "name": "totalSupply",
      "outputs": [
        {
          "name": "",
          "type": "uint256"
        }
      ],
      "payable": false,
      "stateMutability": "view",
      "type": "function",
      "signature": "0x18160ddd"
    },
    {
      "constant": false,
      "inputs": [
        {
          "name": "from",
          "type": "address"
        },
        {
          "name": "to",
          "type": "address"
        },
        {
          "name": "tokenId",
          "type": "uint256"
        }
      ],
      "name": "transferFrom",
      "outputs": [],
      "payable": false,
      "stateMutability": "nonpayable",
      "type": "function",
      "signature": "0x23b872dd"
    },
    {
      "constant": true,
      "inputs": [
        {
          "name": "_myid",
          "type": "bytes32"
        },
        {
          "name": "_result",
          "type": "string"
        }
      ],
      "name": "__callback",
      "outputs": [],
      "payable": false,
      "stateMutability": "pure",
      "type": "function",
      "signature": "0x27dc297e"
    },
    {
      "constant": true,
      "inputs": [
        {
          "name": "owner",
          "type": "address"
        },
        {
          "name": "index",
          "type": "uint256"
        }
      ],
      "name": "tokenOfOwnerByIndex",
      "outputs": [
        {
          "name": "",
          "type": "uint256"
        }
      ],
      "payable": false,
      "stateMutability": "view",
      "type": "function",
      "signature": "0x2f745c59"
    },
    {
      "constant": true,
      "inputs": [
        {
          "name": "_myid",
          "type": "bytes32"
        },
        {
          "name": "_result",
          "type": "string"
        },
        {
          "name": "_proof",
          "type": "bytes"
        }
      ],
      "name": "__callback",
      "outputs": [],
      "payable": false,
      "stateMutability": "pure",
      "type": "function",
      "signature": "0x38bbfa50"
    },
    {
      "constant": false,
      "inputs": [
        {
          "name": "to",
          "type": "address"
        },
        {
          "name": "tokenId",
          "type": "uint256"
        }
      ],
      "name": "mint",
      "outputs": [
        {
          "name": "",
          "type": "bool"
        }
      ],
      "payable": false,
      "stateMutability": "nonpayable",
      "type": "function",
      "signature": "0x40c10f19"
    },
    {
      "constant": false,
      "inputs": [
        {
          "name": "from",
          "type": "address"
        },
        {
          "name": "to",
          "type": "address"
        },
        {
          "name": "tokenId",
          "type": "uint256"
        }
      ],
      "name": "safeTransferFrom",
      "outputs": [],
      "payable": false,
      "stateMutability": "nonpayable",
      "type": "function",
      "signature": "0x42842e0e"
    },
    {
      "constant": true,
      "inputs": [
        {
          "name": "index",
          "type": "uint256"
        }
      ],
      "name": "tokenByIndex",
      "outputs": [
        {
          "name": "",
          "type": "uint256"
        }
      ],
      "payable": false,
      "stateMutability": "view",
      "type": "function",
      "signature": "0x4f6ccce7"
    },
    {
      "constant": true,
      "inputs": [
        {
          "name": "tokenId",
          "type": "uint256"
        }
      ],
      "name": "ownerOf",
      "outputs": [
        {
          "name": "",
          "type": "address"
        }
      ],
      "payable": false,
      "stateMutability": "view",
      "type": "function",
      "signature": "0x6352211e"
    },
    {
      "constant": true,
      "inputs": [
        {
          "name": "owner",
          "type": "address"
        }
      ],
      "name": "balanceOf",
      "outputs": [
        {
          "name": "",
          "type": "uint256"
        }
      ],
      "payable": false,
      "stateMutability": "view",
      "type": "function",
      "signature": "0x70a08231"
    },
    {
      "constant": false,
      "inputs": [],
      "name": "renounceOwnership",
      "outputs": [],
      "payable": false,
      "stateMutability": "nonpayable",
      "type": "function",
      "signature": "0x715018a6"
    },
    {
      "constant": true,
      "inputs": [],
      "name": "getOwner",
      "outputs": [
        {
          "name": "",
          "type": "address"
        }
      ],
      "payable": false,
      "stateMutability": "view",
      "type": "function",
      "signature": "0x893d20e8"
    },
    {
      "constant": true,
      "inputs": [],
      "name": "isOwner",
      "outputs": [
        {
          "name": "",
          "type": "bool"
        }
      ],
      "payable": false,
      "stateMutability": "view",
      "type": "function",
      "signature": "0x8f32d59b"
    },
    {
      "constant": true,
      "inputs": [],
      "name": "symbol",
      "outputs": [
        {
          "name": "",
          "type": "string"
        }
      ],
      "payable": false,
      "stateMutability": "view",
      "type": "function",
      "signature": "0x95d89b41"
    },
    {
      "constant": false,
      "inputs": [
        {
          "name": "to",
          "type": "address"
        },
        {
          "name": "approved",
          "type": "bool"
        }
      ],
      "name": "setApprovalForAll",
      "outputs": [],
      "payable": false,
      "stateMutability": "nonpayable",
      "type": "function",
      "signature": "0xa22cb465"
    },
    {
      "constant": false,
      "inputs": [
        {
          "name": "from",
          "type": "address"
        },
        {
          "name": "to",
          "type": "address"
        },
        {
          "name": "tokenId",
          "type": "uint256"
        },
        {
          "name": "_data",
          "type": "bytes"
        }
      ],
      "name": "safeTransferFrom",
      "outputs": [],
      "payable": false,
      "stateMutability": "nonpayable",
      "type": "function",
      "signature": "0xb88d4fde"
    },
    {
      "constant": true,
      "inputs": [
        {
          "name": "tokenId",
          "type": "uint256"
        }
      ],
      "name": "tokenURI",
      "outputs": [
        {
          "name": "",
          "type": "string"
        }
      ],
      "payable": false,
      "stateMutability": "view",
      "type": "function",
      "signature": "0xc87b56dd"
    },
    {
      "constant": true,
      "inputs": [],
      "name": "baseTokenURI",
      "outputs": [
        {
          "name": "",
          "type": "string"
        }
      ],
      "payable": false,
      "stateMutability": "view",
      "type": "function",
      "signature": "0xd547cfb7"
    },
    {
      "constant": true,
      "inputs": [
        {
          "name": "owner",
          "type": "address"
        },
        {
          "name": "operator",
          "type": "address"
        }
      ],
      "name": "isApprovedForAll",
      "outputs": [
        {
          "name": "",
          "type": "bool"
        }
      ],
      "payable": false,
      "stateMutability": "view",
      "type": "function",
      "signature": "0xe985e9c5"
    },
    {
      "constant": false,
      "inputs": [
        {
          "name": "newOwner",
          "type": "address"
        }
      ],
      "name": "transferOwnership",
      "outputs": [],
      "payable": false,
      "stateMutability": "nonpayable",
      "type": "function",
      "signature": "0xf2fde38b"
    },
    {
      "inputs": [
        {
          "name": "verifierAddress",
          "type": "address"
        },
        {
          "name": "name",
          "type": "string"
        },
        {
          "name": "symbol",
          "type": "string"
        }
      ],
      "payable": false,
      "stateMutability": "nonpayable",
      "type": "constructor",
      "signature": "constructor"
    },
    {
      "anonymous": false,
      "inputs": [
        {
          "indexed": false,
          "name": "solutionIndex",
          "type": "uint256"
        },
        {
          "indexed": false,
          "name": "solutionAddress",
          "type": "address"
        }
      ],
      "name": "SolutionAdded",
      "type": "event",
      "signature": "0x078793128cefb19aac38a33f9e5df39f67716907f6d747e8065545699e0b2b8d"
    },
    {
      "anonymous": false,
      "inputs": [
        {
          "indexed": false,
          "name": "tokenId",
          "type": "uint256"
        },
        {
          "indexed": false,
          "name": "to",
          "type": "address"
        }
      ],
      "name": "TokenMint",
      "type": "event",
      "signature": "0xcae919fa60d0c9867c5b3e0a9529934bca78c09d353736e3327f74837594adc5"
    },
    {
      "anonymous": false,
      "inputs": [
        {
          "indexed": true,
          "name": "from",
          "type": "address"
        },
        {
          "indexed": true,
          "name": "to",
          "type": "address"
        },
        {
          "indexed": true,
          "name": "tokenId",
          "type": "uint256"
        }
      ],
      "name": "Transfer",
      "type": "event",
      "signature": "0xddf252ad1be2c89b69c2b068fc378daa952ba7f163c4a11628f55a4df523b3ef"
    },
    {
      "anonymous": false,
      "inputs": [
        {
          "indexed": true,
          "name": "owner",
          "type": "address"
        },
        {
          "indexed": true,
          "name": "approved",
          "type": "address"
        },
        {
          "indexed": true,
          "name": "tokenId",
          "type": "uint256"
        }
      ],
      "name": "Approval",
      "type": "event",
      "signature": "0x8c5be1e5ebec7d5bd14f71427d1e84f3dd0314c0f7b2291e5b200ac8c7c3b925"
    },
    {
      "anonymous": false,
      "inputs": [
        {
          "indexed": true,
          "name": "owner",
          "type": "address"
        },
        {
          "indexed": true,
          "name": "operator",
          "type": "address"
        },
        {
          "indexed": false,
          "name": "approved",
          "type": "bool"
        }
      ],
      "name": "ApprovalForAll",
      "type": "event",
      "signature": "0x17307eab39ab6107e8899845ad3d59bd9653f200f220920489ca2b5937696c31"
    },
    {
      "anonymous": false,
      "inputs": [
        {
          "indexed": true,
          "name": "triggedEventAddress",
          "type": "address"
        },
        {
          "indexed": false,
          "name": "newValue",
          "type": "bool"
        }
      ],
      "name": "PausedAndUnpaused",
      "type": "event",
      "signature": "0xc39e7237bfff8744cf3c13bd4123d4542cd1803eebff9b19bb09ea990a48d93e"
    },
    {
      "anonymous": false,
      "inputs": [
        {
          "indexed": true,
          "name": "oldOwner",
          "type": "address"
        },
        {
          "indexed": true,
          "name": "newOwner",
          "type": "address"
        }
      ],
      "name": "TransferOwnership",
      "type": "event",
      "signature": "0x5c486528ec3e3f0ea91181cff8116f02bfa350e03b8b6f12e00765adbb5af85c"
    },
    {
      "constant": false,
      "inputs": [
        {
          "name": "to",
          "type": "address"
        },
        {
          "name": "a",
          "type": "uint256[2]"
        },
        {
          "name": "a_p",
          "type": "uint256[2]"
        },
        {
          "name": "b",
          "type": "uint256[2][2]"
        },
        {
          "name": "b_p",
          "type": "uint256[2]"
        },
        {
          "name": "c",
          "type": "uint256[2]"
        },
        {
          "name": "c_p",
          "type": "uint256[2]"
        },
        {
          "name": "h",
          "type": "uint256[2]"
        },
        {
          "name": "k",
          "type": "uint256[2]"
        },
        {
          "name": "input",
          "type": "uint256[2]"
        }
      ],
      "name": "addSolution",
      "outputs": [],
      "payable": false,
      "stateMutability": "nonpayable",
      "type": "function",
      "signature": "0xc1a542b5"
    },
    {
      "constant": false,
      "inputs": [
        {
          "name": "to",
          "type": "address"
        },
        {
          "name": "tokenId",
          "type": "uint256"
        },
        {
          "name": "a",
          "type": "uint256[2]"
        },
        {
          "name": "a_p",
          "type": "uint256[2]"
        },
        {
          "name": "b",
          "type": "uint256[2][2]"
        },
        {
          "name": "b_p",
          "type": "uint256[2]"
        },
        {
          "name": "c",
          "type": "uint256[2]"
        },
        {
          "name": "c_p",
          "type": "uint256[2]"
        },
        {
          "name": "h",
          "type": "uint256[2]"
        },
        {
          "name": "k",
          "type": "uint256[2]"
        },
        {
          "name": "input",
          "type": "uint256[2]"
        }
      ],
      "name": "mintNFT",
      "outputs": [],
      "payable": false,
      "stateMutability": "nonpayable",
      "type": "function",
      "signature": "0x36d47d95"
    }
  ],
  "bytecode": "0x60e0604052603f60808181529062002b7160a03980516200002991601391602090910190620003fa565b503480156200003757600080fd5b5060405162002bb038038062002bb0833981018060405260608110156200005d57600080fd5b8151602083018051919392830192916401000000008111156200007f57600080fd5b820160208101848111156200009357600080fd5b8151640100000000811182820187101715620000ae57600080fd5b50509291906020018051640100000000811115620000cb57600080fd5b82016020810184811115620000df57600080fd5b8151640100000000811182820187101715620000fa57600080fd5b505060138054604080516020601f600260001961010060018816150201909516949094049384018190048102820181019092528281529396508795508694508593859390929091830182828015620001965780601f106200016a5761010080835404028352916020019162000196565b820191906000526020600020905b8154815290600101906020018083116200017857829003601f168201915b505060008054600160a060020a0319163317808255604051600160a060020a039190911694509092507f5c486528ec3e3f0ea91181cff8116f02bfa350e03b8b6f12e00765adbb5af85c91508290a36000805460a060020a60ff02191690819055604080517401000000000000000000000000000000000000000090920460ff16151582525133917fc39e7237bfff8744cf3c13bd4123d4542cd1803eebff9b19bb09ea990a48d93e919081900360200190a26200027d7f01ffc9a7000000000000000000000000000000000000000000000000000000006401000000006200038a810204565b620002b17f80ac58cd000000000000000000000000000000000000000000000000000000006401000000006200038a810204565b620002e57f780e9d63000000000000000000000000000000000000000000000000000000006401000000006200038a810204565b8251620002fa90600f906020860190620003fa565b50815162000310906010906020850190620003fa565b50805162000326906011906020840190620003fa565b506200035b7f5b5e139f000000000000000000000000000000000000000000000000000000006401000000006200038a810204565b505060148054600160a060020a031916600160a060020a039790971696909617909555506200049f9350505050565b7fffffffff000000000000000000000000000000000000000000000000000000008082161415620003ba57600080fd5b7fffffffff00000000000000000000000000000000000000000000000000000000166000908152600160208190526040909120805460ff19169091179055565b828054600181600116156101000203166002900490600052602060002090601f016020900481019282601f106200043d57805160ff19168380011785556200046d565b828001600101855582156200046d579182015b828111156200046d57825182559160200191906001019062000450565b506200047b9291506200047f565b5090565b6200049c91905b808211156200047b576000815560010162000486565b90565b6126c280620004af6000396000f3fe608060405234801561001057600080fd5b50600436106101c6576000357c0100000000000000000000000000000000000000000000000000000000900480634f6ccce711610116578063a22cb465116100b4578063c87b56dd1161008e578063c87b56dd14610b03578063d547cfb714610b20578063e985e9c514610b28578063f2fde38b14610b56576101c6565b8063a22cb46514610838578063b88d4fde14610866578063c1a542b51461092c576101c6565b8063715018a6116100f0578063715018a614610818578063893d20e8146108205780638f32d59b1461082857806395d89b4114610830576101c6565b80634f6ccce7146107b85780636352211e146107d557806370a08231146107f2576101c6565b806323b872dd1161018357806336d47d951161015d57806336d47d951461044757806338bbfa501461062257806340c10f191461075657806342842e0e14610782576101c6565b806323b872dd1461033857806327dc297e1461036e5780632f745c591461041b576101c6565b806301ffc9a7146101cb57806306fdde031461021b578063081812fc14610298578063095ea7b3146102d157806316c38b3c146102ff57806318160ddd1461031e575b600080fd5b610207600480360360208110156101e157600080fd5b50357bffffffffffffffffffffffffffffffffffffffffffffffffffffffff1916610b7c565b604080519115158252519081900360200190f35b610223610bb4565b6040805160208082528351818301528351919283929083019185019080838360005b8381101561025d578181015183820152602001610245565b50505050905090810190601f16801561028a5780820380516001836020036101000a031916815260200191505b509250505060405180910390f35b6102b5600480360360208110156102ae57600080fd5b5035610c4b565b60408051600160a060020a039092168252519081900360200190f35b6102fd600480360360408110156102e757600080fd5b50600160a060020a038135169060200135610c66565b005b6102fd6004803603602081101561031557600080fd5b50351515610d81565b610326610e68565b60408051918252519081900360200190f35b6102fd6004803603606081101561034e57600080fd5b50600160a060020a03813581169160208101359091169060400135610e6e565b6102fd6004803603604081101561038457600080fd5b813591908101906040810160208201356401000000008111156103a657600080fd5b8201836020820111156103b857600080fd5b803590602001918460018302840111640100000000831117156103da57600080fd5b91908080601f016020809104026020016040519081016040528093929190818152602001838380828437600092019190915250929550610e91945050505050565b6103266004803603604081101561043157600080fd5b50600160a060020a038135169060200135610eb1565b6102fd60048036036102c081101561045e57600080fd5b604080518082018252600160a060020a038435169360208101359381019290916080830191808401906002908390839080828437600092019190915250506040805180820182529295949381810193925090600290839083908082843760009201829052506040805180820190915293969594608081019493509150600290835b8282101561051d57604080518082018252908084028601906002908390839080828437600092019190915250505081526001909101906020016104df565b5050604080518082018252939695948181019493509150600290839083908082843760009201919091525050604080518082018252929594938181019392509060029083908390808284376000920191909152505060408051808201825292959493818101939250906002908390839080828437600092019190915250506040805180820182529295949381810193925090600290839083908082843760009201919091525050604080518082018252929594938181019392509060029083908390808284376000920191909152505060408051808201825292959493818101939250906002908390839080828437600092019190915250919450610efe9350505050565b6102fd6004803603606081101561063857600080fd5b8135919081019060408101602082013564010000000081111561065a57600080fd5b82018360208201111561066c57600080fd5b8035906020019184600183028401116401000000008311171561068e57600080fd5b91908080601f01602080910402602001604051908101604052809392919081815260200183838082843760009201919091525092959493602081019350359150506401000000008111156106e157600080fd5b8201836020820111156106f357600080fd5b8035906020019184600183028401116401000000008311171561071557600080fd5b91908080601f016020809104026020016040519081016040528093929190818152602001838380828437600092019190915250929550610e8c945050505050565b6102076004803603604081101561076c57600080fd5b50600160a060020a038135169060200135610f6b565b6102fd6004803603606081101561079857600080fd5b50600160a060020a03813581169160208101359091169060400135610fe5565b610326600480360360208110156107ce57600080fd5b5035611000565b6102b5600480360360208110156107eb57600080fd5b5035611034565b6103266004803603602081101561080857600080fd5b5035600160a060020a031661104f565b6102fd611076565b6102b561111c565b61020761112b565b61022361113c565b6102fd6004803603604081101561084e57600080fd5b50600160a060020a038135169060200135151561119d565b6102fd6004803603608081101561087c57600080fd5b600160a060020a038235811692602081013590911691604082013591908101906080810160608201356401000000008111156108b757600080fd5b8201836020820111156108c957600080fd5b803590602001918460018302840111640100000000831117156108eb57600080fd5b91908080601f016020809104026020016040519081016040528093929190818152602001838380828437600092019190915250929550611221945050505050565b6102fd60048036036102a081101561094357600080fd5b604080518082018252600160a060020a0384351693928301929160608301919060208401906002908390839080828437600092019190915250506040805180820182529295949381810193925090600290839083908082843760009201829052506040805180820190915293969594608081019493509150600290835b828210156109fe57604080518082018252908084028601906002908390839080828437600092019190915250505081526001909101906020016109c0565b50506040805180820182529396959481810194935091506002908390839080828437600092019190915250506040805180820182529295949381810193925090600290839083908082843760009201919091525050604080518082018252929594938181019392509060029083908390808284376000920191909152505060408051808201825292959493818101939250906002908390839080828437600092019190915250506040805180820182529295949381810193925090600290839083908082843760009201919091525050604080518082018252929594938181019392509060029083908390808284376000920191909152509194506112479350505050565b61022360048036036020811015610b1957600080fd5b5035611672565b610223611725565b61020760048036036040811015610b3e57600080fd5b50600160a060020a0381358116916020013516611786565b6102fd60048036036020811015610b6c57600080fd5b5035600160a060020a03166117b4565b7bffffffffffffffffffffffffffffffffffffffffffffffffffffffff19811660009081526001602052604090205460ff165b919050565b600f8054604080516020601f6002600019610100600188161502019095169490940493840181900481028201810190925282815260609390929091830182828015610c405780601f10610c1557610100808354040283529160200191610c40565b820191906000526020600020905b815481529060010190602001808311610c2357829003601f168201915b505050505090505b90565b600090815260036020526040902054600160a060020a031690565b600081815260026020526040902054600160a060020a0383811691161415610cc25760405160e560020a62461bcd0281526004018080602001828103825260228152602001806126756022913960400191505060405180910390fd5b600081815260026020526040902054600160a060020a03163314610d1a5760405160e560020a62461bcd02815260040180806020018281038252602981526020018061264c6029913960400191505060405180910390fd5b60008181526003602090815260408083208054600160a060020a031916600160a060020a038781169182179092556002909352818420549151859492909116917f8c5be1e5ebec7d5bd14f71427d1e84f3dd0314c0f7b2291e5b200ac8c7c3b92591a45050565b60005460ff740100000000000000000000000000000000000000009091041615158115151415610de55760405160e560020a62461bcd02815260040180806020018281038252602181526020018061262b6021913960400191505060405180910390fd5b600080548215157401000000000000000000000000000000000000000090810274ff0000000000000000000000000000000000000000199092169190911791829055604080519190920460ff1615158152905133917fc39e7237bfff8744cf3c13bd4123d4542cd1803eebff9b19bb09ea990a48d93e919081900360200190a250565b60085490565b610e78338261181c565b610e8157600080fd5b610e8c83838361187b565b505050565b604080516000815260208101909152610ead9083908390610e8c565b5050565b6000610ebc8361104f565b8210610ec757600080fd5b600160a060020a0383166000908152600660205260409020805483908110610eeb57fe5b9060005260206000200154905092915050565b610f108b8a8a8a8a8a8a8a8a8a611247565b610f1a8b8b610f6b565b50604080518b8152600160a060020a038d16602082015281517fcae919fa60d0c9867c5b3e0a9529934bca78c09d353736e3327f74837594adc5929181900390910190a15050505050505050505050565b6000610f7561112b565b610fc9576040805160e560020a62461bcd02815260206004820152601760248201527f43616c6c6572206973206e6f7420746865206f776e6572000000000000000000604482015290519081900360640190fd5b610fd3838361189a565b610fdc826118b7565b50600192915050565b610e8c83838360405180602001604052806000815250611221565b600061100a610e68565b821061101557600080fd5b6008828154811061102257fe5b90600052602060002001549050919050565b600090815260026020526040902054600160a060020a031690565b600160a060020a03811660009081526004602052604081206110709061198c565b92915050565b61107e61112b565b6110d2576040805160e560020a62461bcd02815260206004820152601760248201527f43616c6c6572206973206e6f7420746865206f776e6572000000000000000000604482015290519081900360640190fd5b60008054604051600160a060020a03909116907f5c486528ec3e3f0ea91181cff8116f02bfa350e03b8b6f12e00765adbb5af85c908390a360008054600160a060020a0319169055565b600054600160a060020a031690565b600054600160a060020a0316331490565b60108054604080516020601f6002600019610100600188161502019095169490940493840181900481028201810190925282815260609390929091830182828015610c405780601f10610c1557610100808354040283529160200191610c40565b600160a060020a0382163314156111b357600080fd5b336000818152600560209081526040808320600160a060020a03871680855290835292819020805460ff1916861515908117909155815190815290519293927f17307eab39ab6107e8899845ad3d59bd9653f200f220920489ca2b5937696c31929181900390910190a35050565b61122c848484610e6e565b61123884848484611990565b61124157600080fd5b50505050565b611258898989898989898989611b0a565b6112ac576040805160e560020a62461bcd02815260206004820152601660248201527f536f6c7574696f6e20616c726561647920657869737400000000000000000000604482015290519081900360640190fd5b601460009054906101000a9004600160a060020a0316600160a060020a031663fe01ff628a8a8a8a8a8a8a8a8a6040518a63ffffffff167c0100000000000000000000000000000000000000000000000000000000028152600401808a600260200280838360005b8381101561132c578181015183820152602001611314565b5050505090500189600260200280838360005b8381101561135757818101518382015260200161133f565b505050509050018860026000925b818410156113a55760208402830151604080838360005b8381101561139457818101518382015260200161137c565b505050509050019260010192611365565b9250505087600260200280838360005b838110156113cd5781810151838201526020016113b5565b5050505090500186600260200280838360005b838110156113f85781810151838201526020016113e0565b5050505090500185600260200280838360005b8381101561142357818101518382015260200161140b565b5050505090500184600260200280838360005b8381101561144e578181015183820152602001611436565b5050505090500183600260200280838360005b83811015611479578181015183820152602001611461565b5050505090500182600260200280838360005b838110156114a457818101518382015260200161148c565b505050509050019950505050505050505050602060405180830381600087803b1580156114d057600080fd5b505af11580156114e4573d6000803e3d6000fd5b505050506040513d60208110156114fa57600080fd5b5051611550576040805160e560020a62461bcd02815260206004820152601260248201527f536f6c7574696f6e206e6f742076616c69640000000000000000000000000000604482015290519081900360640190fd5b60006115638a8a8a8a8a8a8a8a8a611b55565b604080518082018252828152600160a060020a03808f16602080840182815260158054600181810183556000928352965160029091027f55f448fdea98c4d29eb340757ef0a66cd03dbb9538908a6a81d96026b71ec47581019190915591517f55f448fdea98c4d29eb340757ef0a66cd03dbb9538908a6a81d96026b71ec4769092018054928616600160a060020a0319938416179055865180880188528881528084018581528983526016855291889020905181559051950180549590941694169390931790915582518481529182015281519293507f078793128cefb19aac38a33f9e5df39f67716907f6d747e8065545699e0b2b8d929081900390910190a15050505050505050505050565b606061167d82611d3e565b61168657600080fd5b60008281526012602090815260409182902080548351601f6002600019610100600186161502019093169290920491820184900484028101840190945280845290918301828280156117195780601f106116ee57610100808354040283529160200191611719565b820191906000526020600020905b8154815290600101906020018083116116fc57829003601f168201915b50505050509050919050565b60118054604080516020601f6002600019610100600188161502019095169490940493840181900481028201810190925282815260609390929091830182828015610c405780601f10610c1557610100808354040283529160200191610c40565b600160a060020a03918216600090815260056020908152604080832093909416825291909152205460ff1690565b6117bc61112b565b611810576040805160e560020a62461bcd02815260206004820152601760248201527f43616c6c6572206973206e6f7420746865206f776e6572000000000000000000604482015290519081900360640190fd5b61181981611d5b565b50565b60008061182883611034565b905080600160a060020a031684600160a060020a03161480611863575083600160a060020a031661185884610c4b565b600160a060020a0316145b8061187357506118738185611786565b949350505050565b611886838383611e14565b6118908382611ef4565b610e8c8282611fe9565b6118a48282612027565b6118ae8282611fe9565b610ead8161215e565b6118c081611d3e565b6118c957600080fd5b60118054604080516020601f6002600019610100600188161502019095169490940493840181900481028201810190925282815261196993909290918301828280156119565780601f1061192b57610100808354040283529160200191611956565b820191906000526020600020905b81548152906001019060200180831161193957829003601f168201915b5050505050611964836121a2565b612282565b60008281526012602090815260409091208251610ead9391929190910190612572565b5490565b60006119a484600160a060020a03166122c5565b6119b057506001611873565b6040517f150b7a020000000000000000000000000000000000000000000000000000000081523360048201818152600160a060020a03888116602485015260448401879052608060648501908152865160848601528651600095928a169463150b7a029490938c938b938b939260a4019060208501908083838e5b83811015611a43578181015183820152602001611a2b565b50505050905090810190601f168015611a705780820380516001836020036101000a031916815260200191505b5095505050505050602060405180830381600087803b158015611a9257600080fd5b505af1158015611aa6573d6000803e3d6000fd5b505050506040513d6020811015611abc57600080fd5b50517bffffffffffffffffffffffffffffffffffffffffffffffffffffffff19167f150b7a020000000000000000000000000000000000000000000000000000000014915050949350505050565b60008080611b1f8c8c8c8c8c8c8c8c8c611b55565b600081815260166020526040902060010154909150600160a060020a0316611b4657600191505b509a9950505050505050505050565b6000898989898989898989604051602001808a600260200280838360005b83811015611b8b578181015183820152602001611b73565b5050505090500189600260200280838360005b83811015611bb6578181015183820152602001611b9e565b505050509050018860026000925b81841015611c045760208402830151604080838360005b83811015611bf3578181015183820152602001611bdb565b505050509050019260010192611bc4565b9250505087600260200280838360005b83811015611c2c578181015183820152602001611c14565b5050505090500186600260200280838360005b83811015611c57578181015183820152602001611c3f565b5050505090500185600260200280838360005b83811015611c82578181015183820152602001611c6a565b5050505090500184600260200280838360005b83811015611cad578181015183820152602001611c95565b5050505090500183600260200280838360005b83811015611cd8578181015183820152602001611cc0565b5050505090500182600260200280838360005b83811015611d03578181015183820152602001611ceb565b505050509050019950505050505050505050604051602081830303815290604052805190602001206001900490509998505050505050505050565b600090815260026020526040902054600160a060020a0316151590565b600160a060020a038116611db9576040805160e560020a62461bcd02815260206004820152601060248201527f4e65772061646472657373206e756c6c00000000000000000000000000000000604482015290519081900360640190fd5b60008054604051600160a060020a03808516939216917f5c486528ec3e3f0ea91181cff8116f02bfa350e03b8b6f12e00765adbb5af85c91a360008054600160a060020a031916600160a060020a0392909216919091179055565b82600160a060020a0316611e2782611034565b600160a060020a031614611e3a57600080fd5b600160a060020a038216611e4d57600080fd5b611e56816122cb565b600160a060020a0383166000908152600460205260409020611e7790612306565b600160a060020a0382166000908152600460205260409020611e989061231d565b6000818152600260205260408082208054600160a060020a031916600160a060020a0386811691821790925591518493918716917fddf252ad1be2c89b69c2b068fc378daa952ba7f163c4a11628f55a4df523b3ef91a4505050565b600160a060020a038216600090815260066020526040812054611f1e90600163ffffffff61232616565b600083815260076020526040902054909150808214611fb957600160a060020a0384166000908152600660205260408120805484908110611f5b57fe5b90600052602060002001549050806006600087600160a060020a0316600160a060020a031681526020019081526020016000208381548110611f9957fe5b600091825260208083209091019290925591825260079052604090208190555b600160a060020a0384166000908152600660205260409020805490611fe29060001983016125f0565b5050505050565b600160a060020a0390911660009081526006602081815260408084208054868652600784529185208290559282526001810183559183529091200155565b600160a060020a038216612085576040805160e560020a62461bcd02815260206004820152600f60248201527f496e76616c696420616464726573730000000000000000000000000000000000604482015290519081900360640190fd5b61208e81611d3e565b156120e3576040805160e560020a62461bcd02815260206004820152601560248201527f546f6b656e496420616c72656164792065786973740000000000000000000000604482015290519081900360640190fd5b60008181526002602090815260408083208054600160a060020a031916600160a060020a0387169081179091558352600490915290206121229061231d565b6040518190600160a060020a038416906000907fddf252ad1be2c89b69c2b068fc378daa952ba7f163c4a11628f55a4df523b3ef908290a45050565b600880546000838152600960205260408120829055600182018355919091527ff3f7a9fe364faab93b216da50a3214154f22a0a2b415b23a84c8169e8b636ee30155565b6060816121e3575060408051808201909152600181527f30000000000000000000000000000000000000000000000000000000000000006020820152610baf565b8160005b81156121fb57600101600a820491506121e7565b6060816040519080825280601f01601f191660200182016040528015612228576020820181803883390190505b50905060001982015b851561227957600a860660300160f860020a028282806001900393508151811061225757fe5b6020010190600160f860020a031916908160001a905350600a86049550612231565b50949350505050565b60606122be838360405180602001604052806000815250604051806020016040528060008152506040518060200160405280600081525061233b565b9392505050565b3b151590565b600081815260036020526040902054600160a060020a0316156118195760009081526003602052604090208054600160a060020a0319169055565b805461231990600163ffffffff61232616565b9055565b80546001019055565b60008282111561233557600080fd5b50900390565b6060808690506060869050606086905060608690506060869050606081518351855187518951010101016040519080825280601f01601f19166020018201604052801561238f576020820181803883390190505b509050806000805b88518110156123ef578881815181106123ac57fe5b602001015160f860020a900460f860020a028383806001019450815181106123d057fe5b6020010190600160f860020a031916908160001a905350600101612397565b5060005b875181101561244b5787818151811061240857fe5b602001015160f860020a900460f860020a0283838060010194508151811061242c57fe5b6020010190600160f860020a031916908160001a9053506001016123f3565b5060005b86518110156124a75786818151811061246457fe5b602001015160f860020a900460f860020a0283838060010194508151811061248857fe5b6020010190600160f860020a031916908160001a90535060010161244f565b5060005b8551811015612503578581815181106124c057fe5b602001015160f860020a900460f860020a028383806001019450815181106124e457fe5b6020010190600160f860020a031916908160001a9053506001016124ab565b5060005b845181101561255f5784818151811061251c57fe5b602001015160f860020a900460f860020a0283838060010194508151811061254057fe5b6020010190600160f860020a031916908160001a905350600101612507565b50909d9c50505050505050505050505050565b828054600181600116156101000203166002900490600052602060002090601f016020900481019282601f106125b357805160ff19168380011785556125e0565b828001600101855582156125e0579182015b828111156125e05782518255916020019190600101906125c5565b506125ec929150612610565b5090565b815481835581811115610e8c57600083815260209020610e8c9181019083015b610c4891905b808211156125ec576000815560010161261656fe4e6577207061757365642076616c756520616c72656164792061737369676e656453656e6465722061646472657373206e6f7420746865206f776e6572206f662074686520746f6b656e5472616e73666572206164647265737320616c726561647920746865206f776e6572a165627a7a72305820977e24c85190b2df5d055d90ac282a6422407fa1ed1bf9d4f207f4de40b36efb002968747470733a2f2f73332d75732d776573742d322e616d617a6f6e6177732e636f6d2f756461636974792d626c6f636b636861696e2f63617073746f6e652f",
  "source": "pragma solidity ^0.5.0;\n\nimport './ERC721Mintable.sol';\n\n// DONE define another contract named SolnSquareVerifier that inherits from your ERC721Mintable class\ncontract SolnSquareVerifier is MyCustomERC721Token {\n\n    // FlightSuretyData contract\n    VerifierInterface verifierInterface;\n\n    // DONE define a solutions struct that can hold an index & an address\n    struct Solution {\n        uint256 index;\n        address solutionAddress;\n    }\n\n    // DONE define an array of the above struct\n    Solution[] solutions;\n\n    // DONE define a mapping to store unique solutions submitted\n    mapping(uint256 => Solution) private uniqueSubmittedSolutions;\n\n    // DONE Create an event to emit when a solution is added\n    event SolutionAdded(uint256 solutionIndex, address solutionAddress);\n\n    // Event to inform about a token was mint\n    event TokenMint(uint256 tokenId, address to);\n\n    constructor(address verifierAddress, string memory name, string memory symbol) MyCustomERC721Token(name, symbol) public {\n        verifierInterface = VerifierInterface(verifierAddress);\n    }\n\n    // DONE Create a function to add the solutions to the array and emit the event\n    function addSolution\n    ( \n        address to,\n        uint[2] memory a,\n        uint[2] memory a_p,\n        uint[2][2] memory b,\n        uint[2] memory b_p,\n        uint[2] memory c,\n        uint[2] memory c_p,\n        uint[2] memory h,\n        uint[2] memory k,\n        uint[2] memory input\n    ) \n        public \n    {\n        // Check if solution already exist\n        require(isUniqueSolution(a, a_p, b, b_p, c, c_p, h, k, input), 'Solution already exist');\n\n        // Check if solution is valid\n        require(verifierInterface.verifyTx(a, a_p, b, b_p, c, c_p, h, k, input), \"Solution not valid\");\n\n        // Calculate the hash of the solution which will be the index in the mapping\n        uint256 indexHash = calculateHashIndexOfSolution(a, a_p, b, b_p, c, c_p, h, k, input);\n\n        // Add solution to the array\n        solutions.push(Solution({index: indexHash, solutionAddress: to}));\n\n        // add solution to mapping\n        uniqueSubmittedSolutions[indexHash] = Solution({index: indexHash, solutionAddress: to});\n\n        // Emit proper event\n        emit SolutionAdded(indexHash, to);\n    }\n\n    // DONE Create a function to mint new NFT only after the solution has been verified\n    //  - make sure the solution is unique (has not been used before)\n    //  - make sure you handle metadata as well as tokenSuplly\n    function mintNFT\n    (\n        address to,\n        uint256 tokenId,\n        uint[2] memory a,\n        uint[2] memory a_p,\n        uint[2][2] memory b,\n        uint[2] memory b_p,\n        uint[2] memory c,\n        uint[2] memory c_p,\n        uint[2] memory h,\n        uint[2] memory k,\n        uint[2] memory input\n    )\n        public\n    {\n        // Add solution to the array and mapping. In addSolution there are verify solution check and unique solution check\n        addSolution(to, a, a_p, b, b_p, c, c_p, h, k, input);\n\n        // Mint the token. Metadata are managed inside mint function\n        super.mint(to, tokenId);\n\n        // Emit proper event\n        emit TokenMint(tokenId, to);\n    }\n\n    function isUniqueSolution\n    (\n        uint[2] memory a,\n        uint[2] memory a_p,\n        uint[2][2] memory b,\n        uint[2] memory b_p,\n        uint[2] memory c,\n        uint[2] memory c_p,\n        uint[2] memory h,\n        uint[2] memory k,\n        uint[2] memory input\n    )\n        private\n        view\n        returns(bool)\n    {\n        bool isUnique = false;\n        uint256 indexHash = calculateHashIndexOfSolution(a, a_p, b, b_p, c, c_p, h, k, input);\n        if (uniqueSubmittedSolutions[indexHash].solutionAddress == address(0)) {\n            isUnique = true;\n        }\n        return isUnique;\n    }\n\n    function calculateHashIndexOfSolution\n    (\n        uint[2] memory a,\n        uint[2] memory a_p,\n        uint[2][2] memory b,\n        uint[2] memory b_p,\n        uint[2] memory c,\n        uint[2] memory c_p,\n        uint[2] memory h,\n        uint[2] memory k,\n        uint[2] memory input\n    )\n        private\n        pure\n        returns (uint256)\n    {\n        return uint256(keccak256(abi.encodePacked(a, a_p, b, b_p, c, c_p, h, k, input)));\n    }\n}\n\n// DONE define a contract call to the zokrates generated solidity contract <Verifier> or <renamedVerifier>\n// ABI\ncontract VerifierInterface {\n    function verifyTx(\n        uint[2] memory,\n        uint[2] memory,\n        uint[2][2] memory,\n        uint[2] memory,\n        uint[2] memory,\n        uint[2] memory,\n        uint[2] memory,\n        uint[2] memory,\n        uint[2] memory\n    ) public returns (bool);\n}",
  "sourcePath": "/Users/juansenoret/Documents/trainings/blockchain/Udacity_nanodegree_blockchain/chapters/chapter_9/code/real-state-market-place-capstone-project/eth-contracts/contracts/SolnSquareVerifier.sol",
  "compiler": {
    "name": "solc",
    "version": "0.5.7+commit.6da8b019.Emscripten.clang"
  },
  "schemaVersion": "3.0.1",
  "updatedAt": "2019-04-07T08:05:45.191Z",
  "devdoc": {
    "methods": {
      "baseTokenURI()": {
        "details": "Gets the token baseTokenURI",
        "return": "string representing the token baseTokenURI"
      },
      "isApprovedForAll(address,address)": {
        "details": "Tells whether an operator is approved by a given owner",
        "params": {
          "operator": "operator address which you want to query the approval of",
          "owner": "owner address which you want to query the approval of"
        },
        "return": "bool whether the given operator is approved by the given owner"
      },
      "name()": {
        "details": "Gets the token name",
        "return": "string representing the token name"
      },
      "setApprovalForAll(address,bool)": {
        "details": "Sets or unsets the approval of a given operator An operator is allowed to transfer all tokens of the sender on their behalf",
        "params": {
          "approved": "representing the status of the approval to be set",
          "to": "operator address to set the approval"
        }
      },
      "supportsInterface(bytes4)": {
        "details": "implement supportsInterface(bytes4) using a lookup table"
      },
      "symbol()": {
        "details": "Gets the token symbol",
        "return": "string representing the token symbol"
      },
      "tokenByIndex(uint256)": {
        "details": "Gets the token ID at a given index of all the tokens in this contract Reverts if the index is greater or equal to the total number of tokens",
        "params": {
          "index": "uint256 representing the index to be accessed of the tokens list"
        },
        "return": "uint256 token ID at the given index of the tokens list"
      },
      "tokenOfOwnerByIndex(address,uint256)": {
        "details": "Gets the token ID at a given index of the tokens list of the requested owner",
        "params": {
          "index": "uint256 representing the index to be accessed of the requested tokens list",
          "owner": "address owning the tokens list to be accessed"
        },
        "return": "uint256 token ID at the given index of the tokens list owned by the requested address"
      },
      "totalSupply()": {
        "details": "Gets the total amount of tokens stored by the contract",
        "return": "uint256 representing the total amount of tokens"
      }
    }
  },
  "userdoc": {
    "methods": {}
  }
}