{
	"contractName": "FlightSuretyData",
	"abi": [
		{
			"constant": false,
			"inputs": [],
			"name": "renounceOwnership",
			"outputs": [],
			"payable": false,
			"stateMutability": "nonpayable",
			"type": "function",
			"signature": "0x715018a6"
		},
		{
			"constant": true,
			"inputs": [],
			"name": "owner",
			"outputs": [
				{
					"name": "",
					"type": "address"
				}
			],
			"payable": false,
			"stateMutability": "view",
			"type": "function",
			"signature": "0x8da5cb5b"
		},
		{
			"constant": true,
			"inputs": [],
			"name": "isOwner",
			"outputs": [
				{
					"name": "",
					"type": "bool"
				}
			],
			"payable": false,
			"stateMutability": "view",
			"type": "function",
			"signature": "0x8f32d59b"
		},
		{
			"constant": false,
			"inputs": [
				{
					"name": "newOwner",
					"type": "address"
				}
			],
			"name": "transferOwnership",
			"outputs": [],
			"payable": false,
			"stateMutability": "nonpayable",
			"type": "function",
			"signature": "0xf2fde38b"
		},
		{
			"inputs": [],
			"payable": false,
			"stateMutability": "nonpayable",
			"type": "constructor",
			"signature": "constructor"
		},
		{
			"payable": true,
			"stateMutability": "payable",
			"type": "fallback"
		},
		{
			"anonymous": false,
			"inputs": [
				{
					"indexed": false,
					"name": "authorizedCaller",
					"type": "address"
				}
			],
			"name": "AuthorizeContractCaller",
			"type": "event",
			"signature": "0x135d2d0604d838f23aa9bdfeb6d31b80a06d0e86528a14d861c53c31ff64e381"
		},
		{
			"anonymous": false,
			"inputs": [
				{
					"indexed": false,
					"name": "deauthorizedCaller",
					"type": "address"
				}
			],
			"name": "DeauthorizeContractCaller",
			"type": "event",
			"signature": "0xf08105d18efbef9c2d8f7ce50a61ae1a9824e4642cae74f6c1a6eecc76583db4"
		},
		{
			"anonymous": false,
			"inputs": [
				{
					"indexed": false,
					"name": "operationalStatus",
					"type": "bool"
				}
			],
			"name": "OperatingStatusUpdated",
			"type": "event",
			"signature": "0x77241a0802411cabeac9a2771f3a69722d44d95f469f35956e64d7e025f09d2e"
		},
		{
			"anonymous": false,
			"inputs": [
				{
					"indexed": false,
					"name": "newValue",
					"type": "uint8"
				}
			],
			"name": "MinAirlinesNumberMutipartyConsensusUpdated",
			"type": "event",
			"signature": "0x7ac19b2d9b630a272f1f1f3f19171bfe2f203947d670af35e70ab5e7d3adb7bc"
		},
		{
			"anonymous": false,
			"inputs": [
				{
					"indexed": false,
					"name": "newValue",
					"type": "uint256"
				}
			],
			"name": "MinSubmitionFundUpdated",
			"type": "event",
			"signature": "0x407cc1079f5ac8a914b6241f212223b17e3404442e32c1e8b4f2e68fd3b3a8ed"
		},
		{
			"anonymous": false,
			"inputs": [
				{
					"indexed": true,
					"name": "oldOwner",
					"type": "address"
				},
				{
					"indexed": true,
					"name": "newOwner",
					"type": "address"
				}
			],
			"name": "TransferOwnership",
			"type": "event",
			"signature": "0x5c486528ec3e3f0ea91181cff8116f02bfa350e03b8b6f12e00765adbb5af85c"
		},
		{
			"constant": true,
			"inputs": [],
			"name": "isOperational",
			"outputs": [
				{
					"name": "",
					"type": "bool"
				}
			],
			"payable": false,
			"stateMutability": "view",
			"type": "function",
			"signature": "0xcd905dff"
		},
		{
			"constant": false,
			"inputs": [
				{
					"name": "mode",
					"type": "bool"
				}
			],
			"name": "setOperatingStatus",
			"outputs": [],
			"payable": false,
			"stateMutability": "nonpayable",
			"type": "function",
			"signature": "0x110466ed"
		},
		{
			"constant": false,
			"inputs": [
				{
					"name": "value",
					"type": "uint8"
				}
			],
			"name": "setMinAirlinesNumberMutipartyConsensus",
			"outputs": [],
			"payable": false,
			"stateMutability": "nonpayable",
			"type": "function",
			"signature": "0xe150c2ca"
		},
		{
			"constant": true,
			"inputs": [],
			"name": "getMinAirlinesNumberMutipartyConsensus",
			"outputs": [
				{
					"name": "",
					"type": "uint8"
				}
			],
			"payable": false,
			"stateMutability": "view",
			"type": "function",
			"signature": "0xe4bfff6e"
		},
		{
			"constant": false,
			"inputs": [
				{
					"name": "value",
					"type": "uint256"
				}
			],
			"name": "setMinSubmitionFund",
			"outputs": [],
			"payable": false,
			"stateMutability": "nonpayable",
			"type": "function",
			"signature": "0x74fc612e"
		},
		{
			"constant": true,
			"inputs": [],
			"name": "getRegisteredAirlines",
			"outputs": [
				{
					"name": "",
					"type": "uint256"
				}
			],
			"payable": false,
			"stateMutability": "view",
			"type": "function",
			"signature": "0xc23bcf09"
		},
		{
			"constant": true,
			"inputs": [],
			"name": "getMinSubmitionFund",
			"outputs": [
				{
					"name": "",
					"type": "uint256"
				}
			],
			"payable": false,
			"stateMutability": "view",
			"type": "function",
			"signature": "0x5fe92426"
		},
		{
			"constant": true,
			"inputs": [],
			"name": "fetchDataContractConfiguration",
			"outputs": [
				{
					"name": "",
					"type": "bool"
				},
				{
					"name": "",
					"type": "uint8"
				},
				{
					"name": "",
					"type": "uint256"
				},
				{
					"name": "",
					"type": "uint256"
				}
			],
			"payable": false,
			"stateMutability": "view",
			"type": "function",
			"signature": "0xe7580f7b"
		},
		{
			"constant": false,
			"inputs": [
				{
					"name": "contractAddress",
					"type": "address"
				}
			],
			"name": "authorizeContractCaller",
			"outputs": [],
			"payable": false,
			"stateMutability": "nonpayable",
			"type": "function",
			"signature": "0x02bd928a"
		},
		{
			"constant": false,
			"inputs": [
				{
					"name": "contractAddress",
					"type": "address"
				}
			],
			"name": "deauthorizeContractCaller",
			"outputs": [],
			"payable": false,
			"stateMutability": "nonpayable",
			"type": "function",
			"signature": "0x83623f72"
		},
		{
			"constant": false,
			"inputs": [
				{
					"name": "airlineAddressOrigin",
					"type": "address"
				},
				{
					"name": "airlineAddressToRegister",
					"type": "address"
				},
				{
					"name": "airlineName",
					"type": "string"
				},
				{
					"name": "requireMultipartyConsensus",
					"type": "bool"
				}
			],
			"name": "registerAirline",
			"outputs": [
				{
					"name": "",
					"type": "uint8"
				},
				{
					"name": "",
					"type": "uint256"
				}
			],
			"payable": false,
			"stateMutability": "nonpayable",
			"type": "function",
			"signature": "0x9ffd0c34"
		},
		{
			"constant": true,
			"inputs": [
				{
					"name": "airlineAddress",
					"type": "address"
				}
			],
			"name": "fetchAirlineByAddress",
			"outputs": [
				{
					"name": "",
					"type": "string"
				},
				{
					"name": "",
					"type": "uint8"
				},
				{
					"name": "",
					"type": "uint256"
				}
			],
			"payable": false,
			"stateMutability": "view",
			"type": "function",
			"signature": "0x2b01a725"
		},
		{
			"constant": false,
			"inputs": [
				{
					"name": "airlineAddressOrigin",
					"type": "address"
				},
				{
					"name": "airlineAddressToBeVoted",
					"type": "address"
				}
			],
			"name": "voteToRegisterAirline",
			"outputs": [],
			"payable": false,
			"stateMutability": "nonpayable",
			"type": "function",
			"signature": "0x47f614fb"
		},
		{
			"constant": false,
			"inputs": [
				{
					"name": "airlineAddressToSubmitFund",
					"type": "address"
				}
			],
			"name": "updateFundFieldAirline",
			"outputs": [],
			"payable": false,
			"stateMutability": "nonpayable",
			"type": "function",
			"signature": "0x51c56170"
		},
		{
			"constant": false,
			"inputs": [
				{
					"name": "code",
					"type": "bytes32"
				},
				{
					"name": "updatedTimestamp",
					"type": "uint256"
				},
				{
					"name": "airline",
					"type": "address"
				},
				{
					"name": "departure",
					"type": "bytes32"
				},
				{
					"name": "arrival",
					"type": "bytes32"
				}
			],
			"name": "registerFlight",
			"outputs": [
				{
					"name": "",
					"type": "bytes32"
				},
				{
					"name": "",
					"type": "address"
				},
				{
					"name": "",
					"type": "uint8"
				}
			],
			"payable": false,
			"stateMutability": "nonpayable",
			"type": "function",
			"signature": "0xba805d47"
		},
		{
			"constant": false,
			"inputs": [
				{
					"name": "passenger",
					"type": "address"
				},
				{
					"name": "amountPaid",
					"type": "uint256"
				},
				{
					"name": "flightCode",
					"type": "bytes32"
				}
			],
			"name": "buyInsurance",
			"outputs": [
				{
					"name": "",
					"type": "address"
				},
				{
					"name": "",
					"type": "bytes32"
				},
				{
					"name": "",
					"type": "uint8"
				}
			],
			"payable": true,
			"stateMutability": "payable",
			"type": "function",
			"signature": "0x6958f6a9"
		},
		{
			"constant": false,
			"inputs": [
				{
					"name": "passenger",
					"type": "address"
				},
				{
					"name": "flightCodeInsuranceCode",
					"type": "bytes32"
				},
				{
					"name": "flightStatus",
					"type": "uint8"
				}
			],
			"name": "creditInsurees",
			"outputs": [],
			"payable": false,
			"stateMutability": "nonpayable",
			"type": "function",
			"signature": "0x3ea1097d"
		},
		{
			"constant": false,
			"inputs": [
				{
					"name": "passenger",
					"type": "address"
				},
				{
					"name": "flightCodeInsuranceCode",
					"type": "bytes32"
				}
			],
			"name": "paymentWithdraw",
			"outputs": [
				{
					"name": "",
					"type": "bool"
				}
			],
			"payable": false,
			"stateMutability": "nonpayable",
			"type": "function",
			"signature": "0x345fd17c"
		},
		{
			"constant": false,
			"inputs": [],
			"name": "fund",
			"outputs": [],
			"payable": true,
			"stateMutability": "payable",
			"type": "function",
			"signature": "0xb60d4288"
		},
		{
			"constant": true,
			"inputs": [
				{
					"name": "passenger",
					"type": "address"
				}
			],
			"name": "fetchActiveInsurancesKeysByPassenger",
			"outputs": [
				{
					"name": "",
					"type": "bytes32[]"
				}
			],
			"payable": false,
			"stateMutability": "view",
			"type": "function",
			"signature": "0xad403ba8"
		},
		{
			"constant": true,
			"inputs": [],
			"name": "fetchRegisteredPassengers",
			"outputs": [
				{
					"name": "",
					"type": "address[]"
				}
			],
			"payable": false,
			"stateMutability": "view",
			"type": "function",
			"signature": "0x53e0b36f"
		},
		{
			"constant": true,
			"inputs": [
				{
					"name": "passenger",
					"type": "address"
				},
				{
					"name": "flightCode",
					"type": "bytes32"
				}
			],
			"name": "fetchInsuranceInfoByPassengerAndCode",
			"outputs": [
				{
					"name": "",
					"type": "bytes32"
				},
				{
					"name": "",
					"type": "uint256"
				},
				{
					"name": "",
					"type": "uint8"
				}
			],
			"payable": false,
			"stateMutability": "view",
			"type": "function",
			"signature": "0x912dbcfc"
		},
		{
			"constant": true,
			"inputs": [],
			"name": "fetchRegisteredFlightsCodes",
			"outputs": [
				{
					"name": "",
					"type": "bytes32[]"
				}
			],
			"payable": false,
			"stateMutability": "view",
			"type": "function",
			"signature": "0x76d58121"
		},
		{
			"constant": true,
			"inputs": [
				{
					"name": "flightCode",
					"type": "bytes32"
				}
			],
			"name": "fetchRegisteredFlightInfoByCode",
			"outputs": [
				{
					"name": "",
					"type": "bytes32"
				},
				{
					"name": "",
					"type": "string"
				},
				{
					"name": "",
					"type": "bytes32"
				},
				{
					"name": "",
					"type": "bytes32"
				},
				{
					"name": "",
					"type": "address"
				}
			],
			"payable": false,
			"stateMutability": "view",
			"type": "function",
			"signature": "0x4fa3f212"
		}
	],
	"bytecode": "0x60806040526000805460a060020a60ff021916740100000000000000000000000000000000000000001790553480156200003857600080fd5b5060008054600160a060020a0319163317808255604051600160a060020a039190911691907f5c486528ec3e3f0ea91181cff8116f02bfa350e03b8b6f12e00765adbb5af85c908290a3604080516101008101909152600960c082019081527f4c75667468616e7361000000000000000000000000000000000000000000000060e083015281526020810160018152600160208201819052604082018190526060820181905260809091015260026000620000fb640100000000620001df810204565b600160a060020a031681526020808201929092526040016000208251805191926200012c92849290910190620001ef565b50602082015160018083018054909160ff19909116908360028111156200014f57fe5b021790555060408201516001808301805460608601511515620100000262ff0000199415156101000261ff00199092169190911793909316929092179091556080830151600283015560a0909201516003909101805491151560ff19928316179055600891909155600780549091166004179055670de0b6b3a7640000600955655af3107a4000600a5562000291565b600054600160a060020a03165b90565b828054600181600116156101000203166002900490600052602060002090601f016020900481019282601f106200023257805160ff191683800117855562000262565b8280016001018555821562000262579182015b828111156200026257825182559160200191906001019062000245565b506200027092915062000274565b5090565b620001ec91905b808211156200027057600081556001016200027b565b612fe280620002a16000396000f3fe6080604052600436106101d4576000357c01000000000000000000000000000000000000000000000000000000009004806383623f7211610109578063ba805d47116100a7578063e150c2ca11610081578063e150c2ca14610889578063e4bfff6e146108b6578063e7580f7b146108e1578063f2fde38b14610920576101d4565b8063ba805d47146107eb578063c23bcf091461085f578063cd905dff14610874576101d4565b8063912dbcfc116100e3578063912dbcfc146106a05780639ffd0c34146106f5578063ad403ba8146107b8578063b60d4288146101d4576101d4565b806383623f72146106275780638da5cb5b1461065a5780638f32d59b1461068b576101d4565b806351c56170116101765780636958f6a9116101505780636958f6a91461055d578063715018a6146105d357806374fc612e146105e857806376d5812114610612576101d4565b806351c561701461049e57806353e0b36f146104d15780635fe9242614610536576101d4565b8063345fd17c116101b2578063345fd17c146103045780633ea1097d1461035157806347f614fb146103935780634fa3f212146103ce576101d4565b806302bd928a146101de578063110466ed146102115780632b01a7251461023d575b6101dc610953565b005b3480156101ea57600080fd5b506101dc6004803603602081101561020157600080fd5b5035600160a060020a0316610955565b34801561021d57600080fd5b506101dc6004803603602081101561023457600080fd5b503515156109f3565b34801561024957600080fd5b506102706004803603602081101561026057600080fd5b5035600160a060020a0316610aff565b604051808060200184600281111561028457fe5b60ff168152602001838152602001828103825285818151815260200191508051906020019080838360005b838110156102c75781810151838201526020016102af565b50505050905090810190601f1680156102f45780820380516001836020036101000a031916815260200191505b5094505050505060405180910390f35b34801561031057600080fd5b5061033d6004803603604081101561032757600080fd5b50600160a060020a038135169060200135610cc4565b604080519115158252519081900360200190f35b34801561035d57600080fd5b506101dc6004803603606081101561037457600080fd5b508035600160a060020a0316906020810135906040013560ff16610e03565b34801561039f57600080fd5b506101dc600480360360408110156103b657600080fd5b50600160a060020a0381358116916020013516610fc6565b3480156103da57600080fd5b506103f8600480360360208110156103f157600080fd5b5035611262565b604051808681526020018060200185815260200184815260200183600160a060020a0316600160a060020a03168152602001828103825286818151815260200191508051906020019080838360005b8381101561045f578181015183820152602001610447565b50505050905090810190601f16801561048c5780820380516001836020036101000a031916815260200191505b50965050505050505060405180910390f35b3480156104aa57600080fd5b506101dc600480360360208110156104c157600080fd5b5035600160a060020a03166114c9565b3480156104dd57600080fd5b506104e6611604565b60408051602080825283518183015283519192839290830191858101910280838360005b8381101561052257818101518382015260200161050a565b505050509050019250505060405180910390f35b34801561054257600080fd5b5061054b611705565b60408051918252519081900360200190f35b61058f6004803603606081101561057357600080fd5b50600160a060020a0381351690602081013590604001356117a8565b6040518084600160a060020a0316600160a060020a031681526020018381526020018260038111156105bd57fe5b60ff168152602001935050505060405180910390f35b3480156105df57600080fd5b506101dc611b1e565b3480156105f457600080fd5b506101dc6004803603602081101561060b57600080fd5b5035611bbf565b34801561061e57600080fd5b506104e6611c44565b34801561063357600080fd5b506101dc6004803603602081101561064a57600080fd5b5035600160a060020a0316611d39565b34801561066657600080fd5b5061066f611dd6565b60408051600160a060020a039092168252519081900360200190f35b34801561069757600080fd5b5061033d611de5565b3480156106ac57600080fd5b506106d9600480360360408110156106c357600080fd5b50600160a060020a038135169060200135611df6565b604051808481526020018381526020018260038111156105bd57fe5b34801561070157600080fd5b5061078d6004803603608081101561071857600080fd5b600160a060020a03823581169260208101359091169181019060608101604082013564010000000081111561074c57600080fd5b82018360208201111561075e57600080fd5b8035906020019184600183028401116401000000008311171561078057600080fd5b9193509150351515611fd4565b6040518083600281111561079d57fe5b60ff1681526020018281526020019250505060405180910390f35b3480156107c457600080fd5b506104e6600480360360208110156107db57600080fd5b5035600160a060020a0316612448565b3480156107f757600080fd5b50610836600480360360a081101561080e57600080fd5b50803590602081013590600160a060020a0360408201351690606081013590608001356125c8565b60408051938452600160a060020a03909216602084015260ff1682820152519081900360600190f35b34801561086b57600080fd5b5061054b61293c565b34801561088057600080fd5b5061033d6129df565b34801561089557600080fd5b506101dc600480360360208110156108ac57600080fd5b503560ff166129ef565b3480156108c257600080fd5b506108cb612a87565b6040805160ff9092168252519081900360200190f35b3480156108ed57600080fd5b506108f6612b2d565b60408051941515855260ff9093166020850152838301919091526060830152519081900360800190f35b34801561092c57600080fd5b506101dc6004803603602081101561094357600080fd5b5035600160a060020a0316612bf3565b565b61095d611de5565b61099f576040805160e560020a62461bcd0281526020600482015260176024820152600080516020612e1d833981519152604482015290519081900360640190fd5b600160a060020a03811660008181526001602081815260409283902091909155815192835290517f135d2d0604d838f23aa9bdfeb6d31b80a06d0e86528a14d861c53c31ff64e3819281900390910190a150565b6109fb611de5565b610a3d576040805160e560020a62461bcd0281526020600482015260176024820152600080516020612e1d833981519152604482015290519081900360640190fd5b60005460ff60a060020a9091041615158115151415610a905760405160e560020a62461bcd028152600401808060200182810382526032815260200180612e5d6032913960400191505060405180910390fd5b6000805482151560a060020a90810274ff0000000000000000000000000000000000000000199092169190911791829055604080519190920460ff161515815290517f77241a0802411cabeac9a2771f3a69722d44d95f469f35956e64d7e025f09d2e9181900360200190a150565b33600090815260016020819052604082205460609291829114610b565760405160e560020a62461bcd02815260040180806020018281038252603e815260200180612ed8603e913960400191505060405180910390fd5b60005460a060020a900460ff16610ba15760405160e560020a62461bcd028152600401808060200182810382526025815260200180612f446025913960400191505060405180910390fd5b600160a060020a038416600090815260026020526040902060030154849060ff16610c005760405160e560020a62461bcd028152600401808060200182810382526025815260200180612eb36025913960400191505060405180910390fd5b600160a060020a03851660009081526002602081815260409283902060018082015482850154835487516101009482161594909402600019011695909504601f8101859004850283018501909652858252919460ff909216939290918591830182828015610caf5780601f10610c8457610100808354040283529160200191610caf565b820191906000526020600020905b815481529060010190602001808311610c9257829003601f168201915b50505050509250935093509350509193909250565b600160a060020a03821660009081526005602090815260408083208484526001019091528120548390839060ff16610d46576040805160e560020a62461bcd02815260206004820152601360248201527f496e737572616e6365206e6f7420657869737400000000000000000000000000604482015290519081900360640190fd5b84846001600160a060020a0383166000908152600560209081526040808320858452600101909152902060039081015460ff1690811115610d8357fe5b14610dc25760405160e560020a62461bcd02815260040180806020018281038252602e815260200180612f16602e913960400191505060405180910390fd5b50505050600160a060020a0392909216600090815260056020908152604080832093835260019384019091529020600301805460ff19166002179055919050565b3360009081526001602081905260409091205414610e555760405160e560020a62461bcd02815260040180806020018281038252603e815260200180612ed8603e913960400191505060405180910390fd5b60005460a060020a900460ff16610ea05760405160e560020a62461bcd028152600401808060200182810382526025815260200180612f446025913960400191505060405180910390fd5b600160a060020a038316600090815260056020526040902054839060ff16610f12576040805160e560020a62461bcd02815260206004820152601660248201527f50617373656e67657220646f65736e7420657869737400000000000000000000604482015290519081900360640190fd5b600160a060020a038416600090815260056020908152604080832086845260010190915290205460ff1615610fc05760ff821660141415610f8957600160a060020a03841660009081526005602090815260408083208684526001908101909252909120600301805460ff19169091179055610fc0565b600160a060020a038416600090815260056020908152604080832086845260010190915290206003908101805460ff191690911790555b50505050565b33600090815260016020819052604090912054146110185760405160e560020a62461bcd02815260040180806020018281038252603e815260200180612ed8603e913960400191505060405180910390fd5b60005460a060020a900460ff166110635760405160e560020a62461bcd028152600401808060200182810382526025815260200180612f446025913960400191505060405180910390fd5b816001600160a060020a03821660009081526002602081905260409091206001015460ff169081111561109257fe5b146110d5576040805160e560020a62461bcd02815260206004820152601e6024820152600080516020612e3d833981519152604482015290519081900360640190fd5b600160a060020a038316600090815260026020526040902060010154839062010000900460ff16611150576040805160e560020a62461bcd02815260206004820152601c60248201527f43616c6c6572204169726c696e65206973206e6f742066756e64656400000000604482015290519081900360640190fd5b600160a060020a038316600090815260026020526040902060030154839060ff166111af5760405160e560020a62461bcd028152600401808060200182810382526025815260200180612eb36025913960400191505060405180910390fd5b600160a060020a038416600090815260026020819052604090912001546111dd90600163ffffffff612c4916565b600160a060020a03851660009081526002602081905260409091208101919091556008546112109163ffffffff612c6216565b600160a060020a038516600090815260026020819052604090912001541061125b57600160a060020a03841660009081526002602052604090206001908101805460ff191690911790555b5050505050565b336000908152600160208190526040822054606091839182918291146112bc5760405160e560020a62461bcd02815260040180806020018281038252603e815260200180612ed8603e913960400191505060405180910390fd5b60005460a060020a900460ff166113075760405160e560020a62461bcd028152600401808060200182810382526025815260200180612f446025913960400191505060405180910390fd5b600086815260036020526040902054869060ff166113595760405160e560020a62461bcd028152600401808060200182810382526024815260200180612e8f6024913960400191505060405180910390fd5b600360008881526020019081526020016000206001015460026000600360008b815260200190815260200160002060040160009054906101000a9004600160a060020a0316600160a060020a0316600160a060020a03168152602001908152602001600020600001600360008a815260200190815260200160002060050154600360008b815260200190815260200160002060060154600360008c815260200190815260200160002060040160009054906101000a9004600160a060020a0316838054600181600116156101000203166002900480601f0160208091040260200160405190810160405280929190818152602001828054600181600116156101000203166002900480156114ae5780601f10611483576101008083540402835291602001916114ae565b820191906000526020600020905b81548152906001019060200180831161149157829003601f168201915b50505050509350955095509550955095505091939590929450565b336000908152600160208190526040909120541461151b5760405160e560020a62461bcd02815260040180806020018281038252603e815260200180612ed8603e913960400191505060405180910390fd5b60005460a060020a900460ff166115665760405160e560020a62461bcd028152600401808060200182810382526025815260200180612f446025913960400191505060405180910390fd5b806001600160a060020a03821660009081526002602081905260409091206001015460ff169081111561159557fe5b146115d8576040805160e560020a62461bcd02815260206004820152601e6024820152600080516020612e3d833981519152604482015290519081900360640190fd5b50600160a060020a03166000908152600260205260409020600101805462ff0000191662010000179055565b33600090815260016020819052604090912054606091146116595760405160e560020a62461bcd02815260040180806020018281038252603e815260200180612ed8603e913960400191505060405180910390fd5b60005460a060020a900460ff166116a45760405160e560020a62461bcd028152600401808060200182810382526025815260200180612f446025913960400191505060405180910390fd5b60068054806020026020016040519081016040528092919081815260200182805480156116fa57602002820191906000526020600020905b8154600160a060020a031681526001909101906020018083116116dc575b505050505090505b90565b336000908152600160208190526040822054146117565760405160e560020a62461bcd02815260040180806020018281038252603e815260200180612ed8603e913960400191505060405180910390fd5b60005460a060020a900460ff166117a15760405160e560020a62461bcd028152600401808060200182810382526025815260200180612f446025913960400191505060405180910390fd5b5060095490565b33600090815260016020819052604082205482918291146117fd5760405160e560020a62461bcd02815260040180806020018281038252603e815260200180612ed8603e913960400191505060405180910390fd5b60005460a060020a900460ff166118485760405160e560020a62461bcd028152600401808060200182810382526025815260200180612f446025913960400191505060405180910390fd5b600084815260036020526040902054849060ff1661189a5760405160e560020a62461bcd028152600401808060200182810382526024815260200180612e8f6024913960400191505060405180910390fd5b600160a060020a038716600090815260056020526040902054879060ff1661191a57604080518082018252600181528151600080825260208083018552808401928352600160a060020a0386168252600581529390208251815460ff191690151517815590518051929391926119169260028501920190612d4a565b5050505b6006805460018082019092557ff652222313e28459528d920b65115c16c04f3efc82aaedc97be59f3f377c0d3f01805473ffffffffffffffffffffffffffffffffffffffff1916600160a060020a0384811691909117909155891660009081526005602090815260408083208a8452909301905220548890879060ff16156119d65760405160e560020a62461bcd02815260040180806020018281038252602a815260200180612f69602a913960400191505060405180910390fd5b88600a54811015611a31576040805160e560020a62461bcd02815260206004820181905260248201527f496e737572616e636520616d6f756e742070616964206e6f7420656e6f756768604482015290519081900360640190fd5b6040805160808101825260018152602081018b90529081018b90526060810160009052600160a060020a038c1660009081526005602090815260408083208d845260019081018352928190208451815490151560ff1991821617825592850151818501559084015160028201556060840151600380830180549395929490931691908490811115611abe57fe5b0217905550505050600160a060020a038a16600090815260056020908152604080832060028101805460018082018355918652848620018d90559b84528b01909152902097880154600390980154999a979960ff16985050505050505050565b611b26611de5565b611b68576040805160e560020a62461bcd0281526020600482015260176024820152600080516020612e1d833981519152604482015290519081900360640190fd5b60008054604051600160a060020a03909116907f5c486528ec3e3f0ea91181cff8116f02bfa350e03b8b6f12e00765adbb5af85c908390a36000805473ffffffffffffffffffffffffffffffffffffffff19169055565b611bc7611de5565b611c09576040805160e560020a62461bcd0281526020600482015260176024820152600080516020612e1d833981519152604482015290519081900360640190fd5b60098190556040805182815290517f407cc1079f5ac8a914b6241f212223b17e3404442e32c1e8b4f2e68fd3b3a8ed9181900360200190a150565b3360009081526001602081905260409091205460609114611c995760405160e560020a62461bcd02815260040180806020018281038252603e815260200180612ed8603e913960400191505060405180910390fd5b60005460a060020a900460ff16611ce45760405160e560020a62461bcd028152600401808060200182810382526025815260200180612f446025913960400191505060405180910390fd5b60048054806020026020016040519081016040528092919081815260200182805480156116fa57602002820191906000526020600020905b815481526020019060010190808311611d1c575050505050905090565b611d41611de5565b611d83576040805160e560020a62461bcd0281526020600482015260176024820152600080516020612e1d833981519152604482015290519081900360640190fd5b600160a060020a038116600081815260016020908152604080832092909255815192835290517ff08105d18efbef9c2d8f7ce50a61ae1a9824e4642cae74f6c1a6eecc76583db49281900390910190a150565b600054600160a060020a031690565b600054600160a060020a0316331490565b3360009081526001602081905260408220548291829114611e4b5760405160e560020a62461bcd02815260040180806020018281038252603e815260200180612ed8603e913960400191505060405180910390fd5b60005460a060020a900460ff16611e965760405160e560020a62461bcd028152600401808060200182810382526025815260200180612f446025913960400191505060405180910390fd5b600160a060020a038516600090815260056020526040902054859060ff16611f08576040805160e560020a62461bcd02815260206004820152601660248201527f50617373656e67657220646f65736e7420657869737400000000000000000000604482015290519081900360640190fd5b600160a060020a03861660009081526005602090815260408083208884526001019091529020548690869060ff16611f8a576040805160e560020a62461bcd02815260206004820152601360248201527f496e737572616e6365206e6f7420657869737400000000000000000000000000604482015290519081900360640190fd5b50505050600160a060020a0393909316600090815260056020908152604080832094835260019485019091529020918201546002830154600390930154909492935060ff16919050565b3360009081526001602081905260408220548291146120275760405160e560020a62461bcd02815260040180806020018281038252603e815260200180612ed8603e913960400191505060405180910390fd5b60005460a060020a900460ff166120725760405160e560020a62461bcd028152600401808060200182810382526025815260200180612f446025913960400191505060405180910390fd5b600160a060020a038616600090815260026020526040902060030154869060ff16156120d25760405160e560020a62461bcd028152600401808060200182810382526025815260200180612eb36025913960400191505060405180910390fd5b876001600160a060020a03821660009081526002602081905260409091206001015460ff169081111561210157fe5b14612144576040805160e560020a62461bcd02815260206004820152601e6024820152600080516020612e3d833981519152604482015290519081900360640190fd5b600160a060020a038916600090815260026020526040902060010154899062010000900460ff166121bf576040805160e560020a62461bcd02815260206004820152601c60248201527f43616c6c6572204169726c696e65206973206e6f742066756e64656400000000604482015290519081900360640190fd5b856122f9576040518060c0016040528089898080601f01602080910402602001604051908101604052809392919081815260200183838082843760009201829052509385525050600160208085018290526040808601839052606086018590526080860185905260a090950191909152600160a060020a038e168352600281529290912083518051919361225893508492910190612d95565b50602082015160018083018054909160ff199091169083600281111561227a57fe5b021790555060408201516001808301805460608601511515620100000262ff0000199415156101000261ff00199092169190911793909316929092179091556080830151600283015560a0909201516003909101805491151560ff199092169190911790556008546122f19163ffffffff612c4916565b600855612413565b6040518060c0016040528089898080601f0160208091040260200160405190810160405280939291908181526020018383808284376000920182905250938552505050602080830182905260408084018390526060840183905260808401839052600160a090940193909352600160a060020a038d1682526002815291902082518051919261238d92849290910190612d95565b50602082015160018083018054909160ff19909116908360028111156123af57fe5b0217905550604082015160018201805460608501511515620100000262ff0000199315156101000261ff001990921691909117929092169190911790556080820151600282015560a0909101516003909101805491151560ff199092169190911790555b600160a060020a03891660009081526002602052604090206001015460085460ff909116955093505050509550959350505050565b336000908152600160208190526040909120546060911461249d5760405160e560020a62461bcd02815260040180806020018281038252603e815260200180612ed8603e913960400191505060405180910390fd5b60005460a060020a900460ff166124e85760405160e560020a62461bcd028152600401808060200182810382526025815260200180612f446025913960400191505060405180910390fd5b600160a060020a038216600090815260056020526040902054829060ff1661255a576040805160e560020a62461bcd02815260206004820152601660248201527f50617373656e67657220646f65736e7420657869737400000000000000000000604482015290519081900360640190fd5b600160a060020a038316600090815260056020908152604091829020600201805483518184028101840190945280845290918301828280156125bb57602002820191906000526020600020905b8154815260200190600101908083116125a7575b5050505050915050919050565b336000908152600160208190526040822054829182911461261d5760405160e560020a62461bcd02815260040180806020018281038252603e815260200180612ed8603e913960400191505060405180910390fd5b60005460a060020a900460ff166126685760405160e560020a62461bcd028152600401808060200182810382526025815260200180612f446025913960400191505060405180910390fd5b856001600160a060020a03821660009081526002602081905260409091206001015460ff169081111561269757fe5b146126da576040805160e560020a62461bcd02815260206004820152601e6024820152600080516020612e3d833981519152604482015290519081900360640190fd5b600160a060020a038716600090815260026020526040902060010154879062010000900460ff16612755576040805160e560020a62461bcd02815260206004820152601c60248201527f43616c6c6572204169726c696e65206973206e6f742066756e64656400000000604482015290519081900360640190fd5b60008a8152600360205260409020548a9060ff16156127a85760405160e560020a62461bcd028152600401808060200182810382526024815260200180612f936024913960400191505060405180910390fd5b6040518060e001604052806001151581526020018c8152602001600060ff1681526020018b81526020018a600160a060020a0316815260200189815260200188815250600360008d815260200190815260200160002060008201518160000160006101000a81548160ff0219169083151502179055506020820151816001015560408201518160020160006101000a81548160ff021916908360ff1602179055506060820151816003015560808201518160040160006101000a815481600160a060020a030219169083600160a060020a0316021790555060a0820151816005015560c0820151816006015590505060048b9080600181540180825580915050906001820390600052602060002001600090919290919091505550600360008c815260200190815260200160002060010154600360008d815260200190815260200160002060040160009054906101000a9004600160a060020a0316600360008e815260200190815260200160002060020160009054906101000a900460ff16955095509550505050955095509592505050565b3360009081526001602081905260408220541461298d5760405160e560020a62461bcd02815260040180806020018281038252603e815260200180612ed8603e913960400191505060405180910390fd5b60005460a060020a900460ff166129d85760405160e560020a62461bcd028152600401808060200182810382526025815260200180612f446025913960400191505060405180910390fd5b5060085490565b60005460a060020a900460ff1690565b6129f7611de5565b612a39576040805160e560020a62461bcd0281526020600482015260176024820152600080516020612e1d833981519152604482015290519081900360640190fd5b6007805460ff191660ff838116919091179182905560408051929091168252517f7ac19b2d9b630a272f1f1f3f19171bfe2f203947d670af35e70ab5e7d3adb7bc916020908290030190a150565b33600090815260016020819052604082205414612ad85760405160e560020a62461bcd02815260040180806020018281038252603e815260200180612ed8603e913960400191505060405180910390fd5b60005460a060020a900460ff16612b235760405160e560020a62461bcd028152600401808060200182810382526025815260200180612f446025913960400191505060405180910390fd5b5060075460ff1690565b33600090815260016020819052604082205482918291829114612b845760405160e560020a62461bcd02815260040180806020018281038252603e815260200180612ed8603e913960400191505060405180910390fd5b60005460a060020a900460ff16612bcf5760405160e560020a62461bcd028152600401808060200182810382526025815260200180612f446025913960400191505060405180910390fd5b505060005460075460095460085460a060020a90930460ff90811696921694509250565b612bfb611de5565b612c3d576040805160e560020a62461bcd0281526020600482015260176024820152600080516020612e1d833981519152604482015290519081900360640190fd5b612c4681612c84565b50565b600082820183811015612c5b57600080fd5b9392505050565b6000808211612c7057600080fd5b6000828481612c7b57fe5b04949350505050565b600160a060020a038116612ce2576040805160e560020a62461bcd02815260206004820152601060248201527f4e65772061646472657373206e756c6c00000000000000000000000000000000604482015290519081900360640190fd5b60008054604051600160a060020a03808516939216917f5c486528ec3e3f0ea91181cff8116f02bfa350e03b8b6f12e00765adbb5af85c91a36000805473ffffffffffffffffffffffffffffffffffffffff1916600160a060020a0392909216919091179055565b828054828255906000526020600020908101928215612d85579160200282015b82811115612d85578251825591602001919060010190612d6a565b50612d91929150612e02565b5090565b828054600181600116156101000203166002900490600052602060002090601f016020900481019282601f10612dd657805160ff1916838001178555612d85565b82800160010185558215612d855791820182811115612d85578251825591602001919060010190612d6a565b61170291905b80821115612d915760008155600101612e0856fe43616c6c6572206973206e6f7420746865206f776e657200000000000000000043616c6c6572204169726c696e65206973206e6f7420726567697374657200004572726f72206f7065726174696f6e616c2073746174652068617320616c726561647920746865206e657720737461747573466c6967687420646f65736e277420657869737420696e207468652064617461626173654169726c696e6520616c726561647920657869737420696e2074686520646174616261736543616c6c6572206973206e6f7420617574686f72697a6520746f2063616c6c20746869732066756e6374696f6e20696e206461746120636f6e7472616374496e737572616e636520737461747573206e6f74205265616479466f725061796f7574427950617373656e676572436f6e74726163742069732063757272656e746c79206e6f74206f7065726174696f6e616c496e737572616e6365206578697374206265666f726520746f206372656174652061206e6577206f6e65466c6967687420616c726561647920657869737420696e20746865206461746162617365a165627a7a723058205403b6534ea0b7fa8b1a69dbb1b459e1340320e3145146c22a70cefeb3ac50440029",
	"source": "pragma solidity ^0.5.0;\n\nimport \"../core/Ownable.sol\";\nimport \"../../node_modules/openzeppelin-solidity/contracts/math/SafeMath.sol\";\n\ncontract FlightSuretyData is Ownable {\n    using SafeMath for uint256; // Allow SafeMath functions to be called for all uint256 types (similar to \"prototype\" in Javascript)\n    using SafeMath for uint8; // Allow SafeMath functions to be called for all uint256 types (similar to \"prototype\" in Javascript)\n\n    /********************************************************************************************/\n    /*                                       DATA VARIABLES                                     */\n    /********************************************************************************************/\n\n    // Flight status codees\n    uint8 private constant STATUS_CODE_UNKNOWN = 0;\n    uint8 private constant STATUS_CODE_ON_TIME = 10;\n    uint8 private constant STATUS_CODE_LATE_AIRLINE = 20;\n    uint8 private constant STATUS_CODE_LATE_WEATHER = 30;\n    uint8 private constant STATUS_CODE_LATE_TECHNICAL = 40;\n    uint8 private constant STATUS_CODE_LATE_OTHER = 50;\n\n    // Define enum 'State' with the following values:\n    enum AirlineRegistrationState \n    { \n        InProcessToBeRegistered,    // 0\n        Registered,                 // 1\n        RegisteredDenied            // 2\n    }\n\n    enum InsuranceState \n    { \n        BougthByPassenger,          // 0\n        ReadyForPayoutByPassenger,  // 1\n        WithdrawToPassengerDone,    // 2\n        Expired                     // 3\n    }\n\n    struct Airline {\n        string name;\n        AirlineRegistrationState registrationState;\n        bool isRegistered;\n        bool isFunded;\n        uint256 votes;\n        bool existItem;\n    }\n\n    struct Flight {\n        bool isRegistered;\n        bytes32 code;\n        uint8 statusCode;\n        uint256 updatedTimestamp;        \n        address airline;\n        bytes32 departure;\n        bytes32 arrival;\n    }\n\n    struct Insurance {\n        bool existInsurance;\n        bytes32 code;\n        uint256 amountPaid;\n        InsuranceState status;\n    }\n\n    struct Passenger {\n        bool existPassenger;\n        mapping(bytes32 => Insurance) insurances;\n        bytes32[] insuranceKeys;\n    }\n\n    bool private operational = true;                            // Blocks all state changes throughout the contract if false\n    mapping(address => uint256) private authorizedContracts;    // Mapping for authorize contract caller\n    mapping(address => Airline) private airlines;               // Mapping for airline\n    mapping(bytes32 => Flight) private flights;                 // Mapping for flights\n    bytes32[] flightsKeys;                                      // To iterate the mapping list and get the flights for the Client\n    mapping(address => Passenger) private passengers;           // Mapping for passengers-insurances\n    address[] private passengersWithInsurancesKeys;             // Array of passengers with insurance for internal handel\n    uint8 private minAirlinesNumberMutipartyConsensus;          // Min Number of airlines necessary to start the multiparty consensus to register a new airline\n    uint256 private registeredAirlines;                         // Number of registered airlines\n    uint256 private minSubmitionFund;                           // Min cost to fund for an airline\n    uint256 private minInsurancePay;                            // Min pay to buy and insurance                   \n\n    /********************************************************************************************/\n    /*                                       EVENT DEFINITIONS                                  */\n    /********************************************************************************************/\n\n    event AuthorizeContractCaller(address authorizedCaller);\n    event DeauthorizeContractCaller(address deauthorizedCaller);\n    event OperatingStatusUpdated(bool operationalStatus);\n    event MinAirlinesNumberMutipartyConsensusUpdated(uint8 newValue);\n    event MinSubmitionFundUpdated(uint256 newValue);\n\n    /********************************************************************************************/\n    /*                                       CONSTRUCTOR                                        */\n    /********************************************************************************************/\n\n    /**\n    * @dev Constructor\n    *      The deploying account becomes contractOwner\n    */\n    constructor\n                                (\n                                ) \n                                public \n    {\n        airlines[owner()] = Airline({\n            name: \"Lufthansa\",\n            registrationState: AirlineRegistrationState.Registered,\n            isRegistered: true,\n            isFunded: true,\n            votes: 1,\n            existItem: true});\n        registeredAirlines = 1;\n        minAirlinesNumberMutipartyConsensus = 4;\n        minSubmitionFund = 1 ether;\n        minInsurancePay = 100000000000000 wei;\n    }\n\n    /********************************************************************************************/\n    /*                                       FUNCTION MODIFIERS                                 */\n    /********************************************************************************************/\n\n    // Modifiers help avoid duplication of code. They are typically used to validate something\n    // before a function is allowed to be executed.\n\n    /**\n    * @dev Modifier that requires the \"operational\" boolean variable to be \"true\"\n    *      This is used on all state changing functions to pause the contract in \n    *      the event there is an issue that needs to be fixed\n    */\n    modifier requireIsOperational() \n    {\n        require(operational, \"Contract is currently not operational\");\n        _;  // All modifiers require an \"_\" which indicates where the function body will be added\n    }\n\n    /**\n    * @dev Modifier that requires an authorized contract address to be called\n    */\n    modifier requireIsCallerAuthorized()\n    {\n        require(authorizedContracts[msg.sender] == 1, \"Caller is not authorize to call this function in data contract\");\n        _;\n    }\n\n    /**\n    * @dev Modifier that requires registered and funded airline to register a new airline\n    */\n    modifier requireIsCallerAirlineRegistered(address callerAirline)\n    {\n        require(airlines[callerAirline].registrationState == AirlineRegistrationState.Registered, \"Caller Airline is not register\");\n        _;\n    }\n\n    /**\n    * @dev Modifier that requires registered and funded airline to register a new airline\n    */\n    modifier requireIsCallerAirlineFunded(address callerAirline)\n    {\n        require(airlines[callerAirline].isFunded, \"Caller Airline is not funded\");\n        _;\n    }\n\n    /**\n    * @dev Modifier to check if airline doesnt exist in database\n    */\n    modifier notExistAirline(address airlineAddress) {\n        require(!airlines[airlineAddress].existItem, \"Airline already exist in the database\");\n        _;\n    }\n\n    /**\n    * @dev Modifier to check if airline already exist in database\n    */\n    modifier existAirline(address airlineAddress) {\n        require(airlines[airlineAddress].existItem, \"Airline already exist in the database\");\n        _;\n    }\n\n    /**\n    * @dev Modifier to check if a flight doesnt exist in database\n    */\n    modifier requireNotExistFlight(bytes32 code) {\n        require(!flights[code].isRegistered, \"Flight already exist in the database\");\n        _;\n    }\n\n    /**\n    * @dev Modifier to check if a flight already exist in database\n    */\n    modifier requireExistFlight(bytes32 code) {\n        require(flights[code].isRegistered, \"Flight doesn't exist in the database\");\n        _;\n    }\n\n    /**\n    * @dev Modifier create an entry in passengers mapping if passenger doesnt exit\n    */\n    modifier preProcessIfPassengerNotExist(address passenger) {\n        if(!passengers[passenger].existPassenger) {\n            passengers[passenger] =  Passenger({\n                existPassenger: true,\n                insuranceKeys: new bytes32[](0)\n            });\n        }\n        passengersWithInsurancesKeys.push(passenger);\n        _;\n    }\n\n    /**\n    * @dev Modifier check if passenger exist\n    */\n    modifier requireExistPassenger(address passenger) {\n        require(passengers[passenger].existPassenger, \"Passenger doesnt exist\");\n        _;\n    }\n\n    /**\n    * @dev Modifier create an entry in passengers mapping if passenger doesnt exit\n    */\n    modifier requireInsuranceCodeNotExitPreviously(address passenger, bytes32 code) {\n        require(!passengers[passenger].insurances[code].existInsurance, \"Insurance exist before to create a new one\");\n        _;\n    }\n\n    /**\n    * @dev Modifier to check if an insurance exist for an specific passenger\n    */\n    modifier requireInsuranceCodeExit(address passenger, bytes32 code) {\n        require(passengers[passenger].insurances[code].existInsurance, \"Insurance not exist\");\n        _;\n    }\n\n    /**\n    * @dev Modifier create an entry in passengers mapping if passenger doesnt exit\n    */\n    modifier requireInsurancePaidEnough(uint256 amount) {\n        require(amount >= minInsurancePay, \"Insurance amount paid not enough\");\n        _;\n    }\n\n    /**\n    * @dev Modifier to check if an insurance status is ready to payout withdraw for an specific passenger and insurance\n    */\n    modifier requireInsuranceStatusReadyForPayout(address passenger, bytes32 code) {\n        require(passengers[passenger].insurances[code].status == InsuranceState.ReadyForPayoutByPassenger, \"Insurance status not ReadyForPayoutByPassenger\");\n        _;\n    }\n\n    /********************************************************************************************/\n    /*                                       UTILITY FUNCTIONS                                  */\n    /********************************************************************************************/\n\n    /**\n    * @dev Get operating status of contract\n    *\n    * @return A bool that is the current operating status\n    */      \n    function isOperational() \n                            public \n                            view \n                            returns(bool) \n    {\n        return operational;\n    }\n\n\n    /**\n    * @dev Sets contract operations on/off\n    *\n    * When operational mode is disabled, all write transactions except for this one will fail\n    */    \n    function setOperatingStatus(bool mode) external onlyOwner() {\n        require(operational != mode, \"Error operational state has already the new status\");\n        operational = mode;\n        emit OperatingStatusUpdated(operational);\n    }\n\n    /**\n    * @dev Sets minAirlinesNumberMutipartyConsesus variable\n    *\n    */    \n    function setMinAirlinesNumberMutipartyConsensus(uint8 value) external onlyOwner() {\n        minAirlinesNumberMutipartyConsensus = value;\n        emit MinAirlinesNumberMutipartyConsensusUpdated(minAirlinesNumberMutipartyConsensus);\n    }\n\n    /**\n    * @dev Get minAirlinesNumberMutipartyConsesus variable\n    *\n    */    \n    function getMinAirlinesNumberMutipartyConsensus() \n        external view\n        requireIsCallerAuthorized()\n        requireIsOperational()\n        returns(uint8)\n    {\n        return minAirlinesNumberMutipartyConsensus;\n    }\n\n    /**\n    * @dev Sets minSubmitionFund variable\n    *\n    */    \n    function setMinSubmitionFund(uint256 value) external onlyOwner() {\n        minSubmitionFund = value;\n        emit MinSubmitionFundUpdated(minSubmitionFund);\n    }\n\n    /**\n    * @dev Get minSubmitionFund variable\n    *\n    */    \n    function getRegisteredAirlines() \n        external view\n        requireIsCallerAuthorized()\n        requireIsOperational()\n        returns(uint256)\n    {\n        return registeredAirlines;\n    }\n\n    /**\n    * @dev Get minSubmitionFund variable\n    *\n    */    \n    function getMinSubmitionFund() \n        external view\n        requireIsCallerAuthorized()\n        requireIsOperational()\n        returns(uint256)\n    {\n        return minSubmitionFund;\n    }\n\n    /**\n    * @dev Fetch configuration data of the contract\n    *\n    * Only contract owner can fetch this data and make easy for developer to check the current contract configuration \n    */    \n    function fetchDataContractConfiguration() \n        external view\n        requireIsCallerAuthorized()\n        requireIsOperational()\n        returns(bool, uint8 ,uint256, uint256) \n    {\n        return(\n            operational,\n            minAirlinesNumberMutipartyConsensus,\n            minSubmitionFund,\n            registeredAirlines\n        );\n    }\n\n    /**\n    * @dev Authorize contract address to be a caller for the data contract\n    *\n    * Only contract addresses stored in the mapping variable are able to call the data contract\n    */    \n    function authorizeContractCaller\n    (\n        address contractAddress\n    ) \n        external \n        onlyOwner()\n    {\n        authorizedContracts[contractAddress] = 1;\n        emit AuthorizeContractCaller(contractAddress);\n    }\n\n    /**\n    * @dev Deauthorize contract address to be a caller for the data contract\n    *\n    * Only contract addresses stored in the mapping variable are able to call the data contract\n    */    \n    function deauthorizeContractCaller(address contractAddress) external onlyOwner() {\n        delete authorizedContracts[contractAddress];\n        emit DeauthorizeContractCaller(contractAddress);\n    }\n\n    /********************************************************************************************/\n    /*                                     SMART CONTRACT FUNCTIONS                             */\n    /********************************************************************************************/\n\n   /**\n    * @dev Add an airline to the registration queue\n    *      Can only be called from FlightSuretyApp contract\n    *\n    */   \n    function registerAirline(\n        address airlineAddressOrigin,\n        address airlineAddressToRegister,\n        string calldata airlineName,\n        bool requireMultipartyConsensus\n    ) \n        external \n        requireIsCallerAuthorized()\n        requireIsOperational()\n        notExistAirline(airlineAddressToRegister)\n        requireIsCallerAirlineRegistered(airlineAddressOrigin)\n        requireIsCallerAirlineFunded(airlineAddressOrigin)\n        returns(AirlineRegistrationState, uint256)\n    {\n        if (!requireMultipartyConsensus) {\n            // Save the airline in the airlines mapping\n            airlines[airlineAddressToRegister] = Airline({\n                name: airlineName,\n                registrationState: AirlineRegistrationState.Registered,\n                isRegistered: true, \n                isFunded: false,\n                votes: 0,\n                existItem: true});\n            registeredAirlines = registeredAirlines.add(1);\n        } else {\n            // Save the airline in the airlines mapping\n            airlines[airlineAddressToRegister] = Airline({\n                name: airlineName,\n                registrationState: AirlineRegistrationState.InProcessToBeRegistered,\n                isRegistered: false, \n                isFunded: false,\n                votes: 0,\n                existItem: true});\n        }\n        // Increment the registeredAirlines variable\n        return (airlines[airlineAddressToRegister].registrationState, registeredAirlines);\n    }\n\n    /**\n    * @dev Fetch airline data\n    *      Can only be called from FlightSuretyApp contract\n    *\n    */\n    function fetchAirlineByAddress (address airlineAddress) \n        external\n        view\n        requireIsCallerAuthorized()\n        requireIsOperational()\n        existAirline(airlineAddress)\n        returns(string memory, AirlineRegistrationState, uint256)\n    {\n        return(\n            airlines[airlineAddress].name,\n            airlines[airlineAddress].registrationState,\n            airlines[airlineAddress].votes\n        );\n    }\n\n    /**\n    * @dev Vote to register a new airline in multiparty consensus\n    *      Can only be called from FlightSuretyApp contract\n    *\n    */\n    function voteToRegisterAirline \n    (\n        address airlineAddressOrigin, \n        address airlineAddressToBeVoted\n    )\n        external\n        requireIsCallerAuthorized()\n        requireIsOperational()\n        requireIsCallerAirlineRegistered(airlineAddressOrigin)\n        requireIsCallerAirlineFunded(airlineAddressOrigin)\n        existAirline(airlineAddressToBeVoted)\n    {\n        airlines[airlineAddressToBeVoted].votes = airlines[airlineAddressToBeVoted].votes.add(1);\n        // If more than 50% of the airline votes positively, the airline shall be registered\n        if(airlines[airlineAddressToBeVoted].votes >= (registeredAirlines.div(2))) {\n            airlines[airlineAddressToBeVoted].registrationState = AirlineRegistrationState.Registered;\n        }\n    }\n\n    /**\n    * @dev Update the airline fund fields\n    *      Can only be called from FlightSuretyApp contract\n    *\n    */   \n    function updateFundFieldAirline(\n        address airlineAddressToSubmitFund\n    )\n        external\n        requireIsCallerAuthorized()\n        requireIsOperational()\n        requireIsCallerAirlineRegistered(airlineAddressToSubmitFund)\n    {\n        airlines[airlineAddressToSubmitFund].isFunded = true;\n    }\n\n    /**\n    * @dev Update the airline fund fields\n    *      Can only be called from FlightSuretyApp contract\n    *\n    */\n    function registerFlight\n    (\n        bytes32 code,\n        uint256 updatedTimestamp,\n        address airline,\n        bytes32 departure,\n        bytes32 arrival\n    )\n        external\n        requireIsCallerAuthorized()\n        requireIsOperational()\n        requireIsCallerAirlineRegistered(airline)\n        requireIsCallerAirlineFunded(airline)\n        requireNotExistFlight(code)\n        returns(bytes32, address, uint8)\n    {\n        flights[code] = Flight({\n            isRegistered: true,\n            code: code,\n            statusCode: STATUS_CODE_UNKNOWN,\n            updatedTimestamp: updatedTimestamp,\n            airline: airline,\n            departure: departure,\n            arrival: arrival\n        });\n        flightsKeys.push(code);\n        return(flights[code].code, flights[code].airline, flights[code].statusCode);\n    }\n\n   /**\n    * @dev Buy insurance for a flight\n    *\n    */   \n    function buyInsurance\n    (\n        address passenger,\n        uint256 amountPaid,\n        bytes32 flightCode                        \n    )\n        external\n        payable\n        requireIsCallerAuthorized()\n        requireIsOperational()\n        requireExistFlight(flightCode)\n        preProcessIfPassengerNotExist(passenger)\n        requireInsuranceCodeNotExitPreviously(passenger, flightCode)\n        requireInsurancePaidEnough(amountPaid)\n        returns(address, bytes32, InsuranceState)\n    {\n        // Add Insurance data struct\n        passengers[passenger].insurances[flightCode] = Insurance({\n            existInsurance: true,\n            code: flightCode,\n            amountPaid: amountPaid,\n            status: InsuranceState.BougthByPassenger\n        });\n        // Add to the insuranceKeys array the flightcode as key\n        passengers[passenger].insuranceKeys.push(flightCode);\n        return(\n            passenger, \n            passengers[passenger].insurances[flightCode].code,\n            passengers[passenger].insurances[flightCode].status\n        );\n    }\n\n    /**\n     *  @dev Credits payouts to insurees\n     *       The insurance state is updated in this function in order to credit the payouts to insuree \n    */\n    function creditInsurees\n    (\n        address passenger,\n        bytes32 flightCodeInsuranceCode,\n        uint8 flightStatus\n    )\n        external\n        requireIsCallerAuthorized()\n        requireIsOperational()\n        requireExistPassenger(passenger)\n    {\n        // Check that insurance code exist for the passenger\n        if (passengers[passenger].insurances[flightCodeInsuranceCode].existInsurance) {\n            // Check status code ReadyForPayoutByPassenger\n            if (flightStatus == STATUS_CODE_LATE_AIRLINE) {\n                // Only if the delay is caused because of the airline the insurance will change its status tu\n                passengers[passenger].insurances[flightCodeInsuranceCode].status = InsuranceState.ReadyForPayoutByPassenger;\n            } else {\n                passengers[passenger].insurances[flightCodeInsuranceCode].status = InsuranceState.Expired;\n            }\n        }\n    }\n    \n\n    /**\n     *  @dev Transfers eligible payout funds to insuree\n     *\n    */\n    function paymentWithdraw\n    (\n        address passenger,\n        bytes32 flightCodeInsuranceCode\n    )\n        external\n        requireInsuranceCodeExit(passenger, flightCodeInsuranceCode)\n        requireInsuranceStatusReadyForPayout(passenger, flightCodeInsuranceCode)\n        returns(bool)\n    {\n        passengers[passenger].insurances[flightCodeInsuranceCode].status = InsuranceState.WithdrawToPassengerDone;\n        return true;\n    }\n\n   /**\n    * @dev Initial funding for the insurance. Unless there are too many delayed flights\n    *      resulting in insurance payouts, the contract should be self-sustaining\n    *\n    */   \n    function fund\n                            (   \n                            )\n                            public\n                            payable\n    {\n    }\n\n    /**\n    * @dev Fetch array of registered insurances by passenger key\n    *\n    */   \n    function fetchActiveInsurancesKeysByPassenger\n    (\n        address passenger\n    )\n        external\n        view\n        requireIsCallerAuthorized()\n        requireIsOperational()\n        requireExistPassenger(passenger)\n        returns(bytes32[] memory)\n    {\n        return passengers[passenger].insuranceKeys;\n    }\n\n    /**\n    * @dev Fetch array of registered passengers\n    *\n    */   \n    function fetchRegisteredPassengers\n    (\n    )\n        external\n        view\n        requireIsCallerAuthorized()\n        requireIsOperational()\n        returns(address[] memory)\n    {\n        return passengersWithInsurancesKeys;\n    }\n\n    /**\n    * @dev Fetch array of registerd flights\n    *\n    */   \n    function fetchInsuranceInfoByPassengerAndCode\n    (\n        address passenger,\n        bytes32 flightCode\n    )\n        external\n        view\n        requireIsCallerAuthorized()\n        requireIsOperational()\n        requireExistPassenger(passenger)\n        requireInsuranceCodeExit(passenger, flightCode)\n        returns(bytes32, uint256, InsuranceState)\n    {\n        return (\n            passengers[passenger].insurances[flightCode].code,\n            passengers[passenger].insurances[flightCode].amountPaid,\n            passengers[passenger].insurances[flightCode].status\n        );\n    }\n\n    /**\n    * @dev Fetch array of registerd flights\n    *\n    */   \n    function fetchRegisteredFlightsCodes\n    (   \n    )\n        external\n        view\n        requireIsCallerAuthorized()\n        requireIsOperational()\n        returns(bytes32[] memory)\n    {\n        return flightsKeys;\n    }\n\n    /**\n    * @dev Fetch information for specific regisered flight\n    *\n    */   \n    function fetchRegisteredFlightInfoByCode\n    (\n        bytes32 flightCode\n    )\n        external\n        view\n        requireIsCallerAuthorized()\n        requireIsOperational()\n        requireExistFlight(flightCode)\n        returns(bytes32, string memory, bytes32, bytes32, address)\n    {\n        return (\n            flights[flightCode].code,\n            airlines[flights[flightCode].airline].name,\n            flights[flightCode].departure,\n            flights[flightCode].arrival,\n            flights[flightCode].airline\n        );\n    }\n\n    function getFlightKey\n                        (\n                            address airline,\n                            string memory flight,\n                            uint256 timestamp\n                        )\n                        pure\n                        internal\n                        returns(bytes32) \n    {\n        return keccak256(abi.encodePacked(airline, flight, timestamp));\n    }\n\n    /**\n    * @dev Fallback function for funding smart contract.\n    *\n    */\n    function() \n                            external \n                            payable \n    {\n        fund();\n    }\n\n\n}\n\n",
	"sourcePath": "/Users/juansenoret/Documents/trainings/blockchain/Udacity_nanodegree_blockchain/chapters/chapter_8/code/flightsurety-project-code-v2/smart-contracts/contracts/base/FlightSuretyData.sol",
	"compiler": {
		"name": "solc",
		"version": "0.5.7+commit.6da8b019.Emscripten.clang"
	},
	"schemaVersion": "3.0.1",
	"updatedAt": "2019-04-02T14:47:25.373Z",
	"devdoc": {
		"methods": {
			"authorizeContractCaller(address)": {
				"details": "Authorize contract address to be a caller for the data contract    * Only contract addresses stored in the mapping variable are able to call the data contract"
			},
			"buyInsurance(address,uint256,bytes32)": {
				"details": "Buy insurance for a flight    "
			},
			"constructor": {
				"details": "Constructor     The deploying account becomes contractOwner"
			},
			"creditInsurees(address,bytes32,uint8)": {
				"details": "Credits payouts to insurees      The insurance state is updated in this function in order to credit the payouts to insuree "
			},
			"deauthorizeContractCaller(address)": {
				"details": "Deauthorize contract address to be a caller for the data contract    * Only contract addresses stored in the mapping variable are able to call the data contract"
			},
			"fetchActiveInsurancesKeysByPassenger(address)": {
				"details": "Fetch array of registered insurances by passenger key    "
			},
			"fetchAirlineByAddress(address)": {
				"details": "Fetch airline data     Can only be called from FlightSuretyApp contract    "
			},
			"fetchDataContractConfiguration()": {
				"details": "Fetch configuration data of the contract    * Only contract owner can fetch this data and make easy for developer to check the current contract configuration "
			},
			"fetchInsuranceInfoByPassengerAndCode(address,bytes32)": {
				"details": "Fetch array of registerd flights    "
			},
			"fetchRegisteredFlightInfoByCode(bytes32)": {
				"details": "Fetch information for specific regisered flight    "
			},
			"fetchRegisteredFlightsCodes()": {
				"details": "Fetch array of registerd flights    "
			},
			"fetchRegisteredPassengers()": {
				"details": "Fetch array of registered passengers    "
			},
			"fund()": {
				"details": "Initial funding for the insurance. Unless there are too many delayed flights     resulting in insurance payouts, the contract should be self-sustaining    "
			},
			"getMinAirlinesNumberMutipartyConsensus()": {
				"details": "Get minAirlinesNumberMutipartyConsesus variable    "
			},
			"getMinSubmitionFund()": {
				"details": "Get minSubmitionFund variable    "
			},
			"getRegisteredAirlines()": {
				"details": "Get minSubmitionFund variable    "
			},
			"isOperational()": {
				"details": "Get operating status of contract",
				"return": "A bool that is the current operating status"
			},
			"paymentWithdraw(address,bytes32)": {
				"details": "Transfers eligible payout funds to insuree    "
			},
			"registerAirline(address,address,string,bool)": {
				"details": "Add an airline to the registration queue     Can only be called from FlightSuretyApp contract    "
			},
			"registerFlight(bytes32,uint256,address,bytes32,bytes32)": {
				"details": "Update the airline fund fields     Can only be called from FlightSuretyApp contract    "
			},
			"setMinAirlinesNumberMutipartyConsensus(uint8)": {
				"details": "Sets minAirlinesNumberMutipartyConsesus variable    "
			},
			"setMinSubmitionFund(uint256)": {
				"details": "Sets minSubmitionFund variable    "
			},
			"setOperatingStatus(bool)": {
				"details": "Sets contract operations on/off    * When operational mode is disabled, all write transactions except for this one will fail"
			},
			"updateFundFieldAirline(address)": {
				"details": "Update the airline fund fields     Can only be called from FlightSuretyApp contract    "
			},
			"voteToRegisterAirline(address,address)": {
				"details": "Vote to register a new airline in multiparty consensus     Can only be called from FlightSuretyApp contract    "
			}
		}
	},
	"userdoc": {
		"methods": {}
	},
	"timeoutBlocks": 0,
	"numberFormat": "BN"
}